:02000000ff00ff
:080002004c6174746963650030
:17000a00694345637562653220323032302e31322e32373934330071
:16002100506172743a206943453430554c314b2d535747313600e1
:1b003700446174653a2041707220323020323032322031343a33333a35310086
:0200520000ffad
:040054007eaa997e69
:02005800510055
:02005a0001059e
:03005c00920020ef
:03005f0062016fcc
:0300620082000019
:03006500720070b6
:02006800110085
:02006a00010192
:20006c000000000000000000000000100000000000004000000000000100000000004000e3
:0e008c00000000000100000000000004000061
:20009a00000000000000000000000020000000000000800000000000020000000000800024
:0e00ba0000000000020000000000000800002e
:2000c800000000000000000000000000000000000000000000000000000000000000000018
:0e00e80000000000000000000000000000000a
:2000f60000000000000000000000000000000000000000000000000c0000000000000000de
:0e0116000000000000000000000000000000db
:200124000000000000000000000000000000000000000000000000040000000000000000b7
:0e0144000000000000000000000000000000ad
:2001520000000000000000000000000000000000000000000000000000000000000000008d
:0e01720000000000000000000000000000007f
:2001800000000000000000000000000000000000000000000000000000000000000000005f
:0e01a000000000000000000000000000000051
:2001ae00000000000000000000000000000000000000000000000000000000000000000031
:0e01ce00000000000000000000000000000023
:2001dc00000000000000000000000000000000000000000000000000000000000000000003
:0e01fc000000000000000000000000000000f5
:20020a000000000000000000000000000000000000000000000000000000000000000000d4
:0e022a000000000000000000000000000000c6
:200238000000000000000000000000000000000000000000000000000000000000000000a6
:0e02580000000000000000000008000400008c
:20026600000000000000000000000000000000000000000000000000000000000000000078
:0e028600000000000000000000500004000016
:2002940000000000000000000000000000000000000000000000000000000000000000004a
:0e02b40000000000000000000000000000003c
:2002c20000000000000000000000000000000000000000000000000000000000000000001c
:0e02e200000000000600000000000000000008
:2002f0000000000000000000000000000000000000000000000000000000000000000000ee
:0e0310000000000000000000000000000000df
:20031e000000000000000000000000000000000000000000000000000000000000000000bf
:0e033e000000000000000000000000000000b1
:20034c00010000000c3028000000033c100000000000000000000000000000062058ff0060
:0e036c0000008000688d0000000687ea500047
:20037a000100001c0c3000000000003c0040000000000000000000000000000002e0f500b7
:0e039a000000100d604c000000001e0aa000c4
:2003a8006100c0000c3029800000033c1000000000000000000000000006001c00fabc43c5
:0e03c800180200012be80060000386e52420e7
:2003d600010003000c3002000000043c0040000000000000000000000008000400407e007b
:0e03f6002004000043e800800002f60e200004
:20040400000000360c3023000000033c1000000000000000000000000000000000000000f4
:0e0424000000018bb1d00800020014925000bd
:20043200000000340c3003000000043c00400000000000000000000000000000380000007f
:0e045200000000b5009000000142dda1900006
:20046000010243960c3020000000073c1000000000000000000000000004001c0018f000c9
:0e0480000000500929410000014297ef1020b2
:20048e00000364000c3000000000003c001000000000000000000000000400000000f0006b
:0e04ae00800008bd42a8000000243e0a200085
:2004bc00000000060c302000050a073c10100000000000000000000000000000000000004c
:0e04dc000000580d73d40000000021e4002041
:2004ea00000000000c3000000d9b003c0000000000000000000000000000000028000000aa
:0e050a000000000583fc04000000140800003f
:20051800000007a60c302000050a073c10400000000000000000000000000c3400000000d8
:0e0538000000d1800000000000000000000064
:200546000000042e0c3000000d9b043c00000000000000000000000000000014000000002b
:0e0566000000b00000000000000000000000d7
:20057400000040000c3020000008073c1010000000000000000000000000000002ea520022
:0e059400000001cd73d40000006000000000e4
:2005a200000000000c3000000000043c00000000000000000000000000000000015da500ba
:0e05c2000000000583fc00000002c0000000e5
:2005d000000000000c3020028000033c1000000000000000000000000000000061ec264a21
:0e05f0000000000f7299280003400000000078
:2005fe00000000000c3000000000003c00400000000000000000000000000000027025008e
:0e061e000000000b8168000003600000000077
:20062c0001000000ac302000001a02bc10000000015af500000000000000023c00d885508e
:0e064c000000019daa94000002000dcf500096
:20065a00010000000c3000000000003c000000000030f50000000000000000063f4847000e
:0e067a00000000896560000000428f0500004e
:200688000000001dcc3021800d9b02bc10060036027cf702000000000006005400c8f50058
:0e06a8001800981de16c0860c0003daf5000c6
:2006b600000000030c300200050a003c000800140050ff0000000000000800820030f5007e
:0e06d600200070dd02ac008001400cdf7000df
:2006e4000102c001ac3223000d80023c100408007c0000000000000000000000287c5200d8
:0e0704000000000f2395880000600dc000006b
:20071200000360010c3001008500043c000c0000280000000005000000000000424f510046
:0e073200000000abc19c040000039c00a0006e
:2007400001000040ac3020000000063c10000016047cf500000000000000000661cca75253
:0e0760000000b80806040000016005aa500061
:20076e00010002c00c3000280000003c001000002810f50000000000000000000070030058
:0e078e00000018a32108000000002e055000f6
:20079c0000000700cc3020000001063c10002000035af7020000000000000046065d530055
:0e07bc0000007009f294000003c6d5ca0020a8
:2007ca00000004010c300000000f003c000000000170ff0000000000000002002aca03001a
:0e07ea000000500f0280000003e61e0b00000e
:2007f800000000400c3020000000063c10000a0004000000000000000000001601dae243cf
:0e0818000038580bbf8d04000066158db62009
:20082600000003800c3000000000043c0000000020000000000000000001000020405200e0
:0e084600000000e3a2cc010000000c0e300008
:20085400000007000c3220040000063c10001000001ef0400000000000001006607d020076
:0e0874000040181b6000000101e00dcff000f5
:20088200010004000c3000000000043c000000000000f0000000000000001000024b510037
:0e08a2000000008100140000e0001c0f500058
:2008b000000000000c3020000000000000000020000000000000000000000000016ca74256
:0e08d000000001ab60000000000024c25420b4
:2008de00000000000c300000000000000000003c00000000000000000000000000700310ff
:0e08fe00000000013008400000002d02e00064
:20090c00000000000c302000080006bc100200006b68f000000000000000000000000000d0
:0e092c000000000be00800000002948f500055
:20093a00000000000c3000000b0e043c0000000002d0a5010000000000000034000000005c
:0e095a00000000a5b54400100006c30f5000b9
:20096800000000000c302180080010295006000005cc50000000000000000000017e00005b
:0e098800180018c13388080000001fa80000e6
:20099600000003800c3002000b0000294008001421d00f00000000000000002c015b082040
:0e09b6006000d90f8148000000001cf0000016
:2009c400000000000c312100010f02bc10000014074ce24200000000000000000400000048
:0e09e40002800009e32d0800000005e000205d
:2009f200000000000c300300201d043c000000002070a02000000000000000342400000081
:0e0a12000100000d830c04000002e70010102c
:200a2000000000000c302000010102bc100000206ddaa5000000000000000006017ead004c
:0e0a4000000050ab26dc0000014001ef70000a
:200a4e00000003800c300000000c003c000000142bf00f000000000000000002015b5a008b
:0e0a6e00000001996e940200000025bfb10047
:200a7c00000000160c30200000000029500200067d7ed20200000000000000000000000098
:0e0a9c0000007811e54c000000000000000092
:200aaa00000000020c30000000009016801000027020d20000000000000000000000000054
:0e0aca000000d883b80c0000000000000000ff
:200ad800000000060c302000000806bc1040000000d8f50001000000000001400058f52006
:0e0af800000019e9b3890800000000000000aa
:200b0600000010020c3000000000003c000000002c20f50002000000000000800000f5008d
:0e0b2600000000030148040000000000000071
:200b3400010000000c3020040000073c100010262bccb142000000000000100000000000bd
:0e0b540000400011e28000010200400000009d
:200b6200000000000c3000000000043c000000266e405a0140000000000000000000000088
:0e0b82000000008980000400034240000000d3
:200b9000000000000c3020000000063c1000000000ca00000000000000000000700000005d
:0e0bb000000018036800080000670000000045
:200bbe00000000000c3000000000003c0000003400ee042000000000000000004000000019
:0e0bde000000000301002000002600000000bf
:200bec000000005fa550000000007225b000003622dd0c000000000000000000034ea560b7
:0e0c0c0000008005a8000000000000000000ad
:200c1a0000000241055000000000002580800014016f000000000000000000000250f50131
:0e0c3a0080005001c280400000000000000059
:200c480000000605c0c0218000007225b00000206cd8b102000000000006000004000000f8
:0e0c680000008000000000600200000000009c
:200c76000000043f0000020000000025800000042820b1000000000000080000240000004b
:0e0c96000000b0000000008003c0000000005d
:200ca4000002666ea082230000195225b0000000004c070000000000000000200000000062
:0e0cc40000000000000000c0000600e5540023
:200cd200000266f500000300000808258000000000c88500000000000000003c0000000064
:0e0cf200000000e0000000400000350aa000f5
:200d0000000006608b40000001995225b00000166a7af000002800000000000000000000cf
:0e0d20000000000000000000000000a0f40031
:200d2e0000000265d7800000000808258000001429e0a50000000000000000000000000070
:0e0d4e00000000a00000000000000100f00006
:200d5c0000000697e870200000007a25b00000266618d20200180000000000000000000083
:0e0d7c00000000082bd4000000004000000022
:200d8a000000000208700000000000258000002661d0e100000000000000000000000000f2
:0e0daa000000000143e800000003c00000004c
:200db80000014054e250000000005a25b000003402eef5000000000000000000000000000c
:0e0dd800000000000000000000001ea05400fb
:200de60000000214e0d00000010000258000003e01405000000000000000000000000000b2
:0e0e0600000000000000000000003d0f501032
:200e140000036046c5500000098c5a25b000000601685b0200000000000000000000000070
:0e0e340001000000000000000000400000006f
:200e42000001428305500000011008258000000000305b0800000000000000002000000004
:0e0e62000280000000000000000200000000fe
:200e700000036015e550030008005a259000002661fa551000000000000c001c000000008d
:0e0e90000000000162bc004000600000000095
:200e9e00000140020550010001000825800000260010550000000000000c00000000000056
:0e0ebe000000000002bc004000000000000028
:200ecc000002000dc006000008000317c0200000000000000000000000000000000000002f
:0e0eec000000000000000000000000000000f8
:200efa00000040050af010000900b02bc000000000000000000000000000000000000000e5
:0e0f1a000000000000000000000000000000c9
:200f28006000000000000180000a53691000000000000000000000000000000000000000f2
:0e0f480000000000000000000000000000009b
:200f56008000000000000200000a36a9c04000000000000000000000000000000000000010
:0e0f760000000000000000000000000000006d
:200f8400400006800000000001801ab48000000000000000000000000000000000000000b8
:0e0fa40000000000000000000000000000003f
:200fb200c000040000000000000e0f3480000000000000000000000000000000000000008a
:0e0fd200000000000000000000000000000011
:200fe0000000000000000000081817b88080040000000000000000000000000000000000fe
:0e1000000000000000000000000000000000e2
:20100e00000000000000000001000038800000000000000000000000000000000000000009
:0e102e000000000000000000000000000000b4
:20103c00000160000000000007807ba8c08000000000000000000000000000000000000049
:0e105c00000000000000000000000000000086
:20106a000000000000000000018b0428c000000000000000000000000000000000000000ee
:0e108a00000000000000000000000000000058
:201098000000068000000000070076154000000000000000000000000000000000000000e0
:0e10b80000000000000000000000000000002a
:2010c600000000000000000000800415400000000000000000000000000000000000000031
:0e10e6000000000000000000000000000000fc
:2010f400000000000000000001013680040000000000000000000000000000000000000020
:0e1114000000000000000000000000000000cd
:2011220000000000000000000009b0280000000000000000000000000000000000000000cc
:0e11420000000000000000000000000000009f
:2011500000000000000000000980d69c50c000000000000000000000000000000000000074
:0e117000000000000000000000000000000071
:20117e0000000000000000000980342c000000000000000000000000000000000000000068
:0e119e00000000000000000000000000000043
:2011ac000000001cca00000000007225b00000366648a00000000000000000000000000072
:0e11cc00000000000000000000000000000015
:2011da000000025f000000000000002580800014285840000000000000000000000000009b
:0e11fa000000000000000000000000000000e7
:201208006002003eaa00218000007225b0000020017ca00200000000000000000000000055
:0e1228000000000000000000000000000000b8
:201236008002401d08000200000000258000001401d04000000000000000000000000000e5
:0e12560000000000000000000000000000008a
:20126400c000665cce52200000195225b000000069ccfb02028000000000000000000000b4
:0e12840000000000000000000000000000005c
:20129200400162240fa00000000808258000000000e0a50901000000000000000000000082
:0e12b20000000000000000000000000000002e
:2012c0000001e60fea02000001815225b0000016004aa00000000000000000000000000083
:0e12e000000000000000000000000000000000
:2012ee00000024030a00000000080825800000000030a0000000000000000000000000002a
:0e130e000000000000000000000000000000d1
:20131c00000146e0afa0000280007a25b00000140000000000000000000000000000000056
:0e133c000000000000000000000000000000a3
:20134a00000003d50f500000000000258000000600000000000000000000000000000000a1
:0e136a00000000000000000000000000000075
:2013780000000055a104280200005a25b000000004000000000200000000000000000000fc
:0e139800000000000000000000000000000047
:2013a600000002950300000009000025800000003c000000000000000000000000000000a3
:0e13c600000000000000000000000000000019
:2013d400000160400000000009805a25b000000000000000000000000000000000000000a0
:0e13f4000000000000000000000000000000eb
:20140200000142800000000001000825800000342c000000000000000000000000000000f9
:0e1422000000000000000000000000000000bc
:20143000000366978ff0130008187a25b0000000000000000000000000000000000000009b
:0e14500000000000000000000000000000008e
:20145e00000140340fa101000100082580000000000000000000000000000000000000009a
:0e147e00000000000000000000000000000060
:02148c0000005e
:03148e0072009059
:02149100110147
:02149300010155
:201495000000000000000000000000100000000000004000000000000100000000004000a6
:0e14b500000000000100000000000004000024
:2014c3000000000000000000000000200000000000008000000000000200000000008000e7
:0e14e3000000000002000000000000080000f1
:2014f1000000000000000000000000000000000000000000000000000000000000000000db
:0e1511000000000000000000000000000000cc
:20151f000000000000000000000000000000000000000000000000000000000000000000ac
:0e153f0000000000000000000000000000009e
:20154d0000000000000000000000000000000000000000000000000000000000000000007e
:0e156d00000000000000000000000000000070
:20157b00000000000000000000000000000000000000000000000000000000000000000050
:0e159b00000000000000000000000000000042
:2015a900000000000000000000000000000000000000000000000000000000000000000022
:0e15c900000000000000000000000000000014
:2015d7000000000000000000000000000000000000000000000000000000000000000000f4
:0e15f7000000000000000000000000000000e6
:201605000000000000000000000000000000000000000000000000000000000000000000c5
:0e1625000000000000000000000000000000b7
:20163300000000000000000000000000000000000000000000000000020000000000000095
:0e165300000000000000000000000000000089
:20166100000000000000000000000000000000000000000000000000000000000000000069
:0e16810000000000000000000000000000005b
:20168f0000000000000000000000000000000000000000000000000000000000000000003b
:0e16af0000000000000000000000000000002d
:2016bd0000000000000000000000000000000000000000000000000000000000000000000d
:0e16dd000000000000000000000000000000ff
:2016eb000000000000000000000000000000000000000000000000000000000000000000df
:0e170b000000000000000000000000000000d0
:201719000000000000000000000000000000000000000000000000000200000000000000ae
:0e1739000000000000000000000000000000a2
:20174700000000000000000000000000000000000000000000000000000000000000000082
:0e176700000000000000000000000000000074
:201775000000003c0c300000000000000000000000000000000000000000000000000000dc
:0e179500000000000000000000000000000046
:2017a300000000000c302000000000000000000000000000000000000000000000000000ca
:0e17c300000000000000000000000000000018
:2017d1000000077c0c30000000000000000000000000000000000000000000000000000039
:0e17f1000000000000000000000000000000ea
:2017ff00000006800c302000000000000000000000000000000000000000000000000000e8
:0e181f000000000000000000000000000000bb
:20182d000000200c0c30000000000000000000000000000000000000000000000000000033
:0e184d0000000000000000000000000000008d
:20185b00000160200c30200000000000000000000000000000000000000000000000000090
:0e187b0000000000000000000000000000005f
:20188900000000000c30000000000000000000000000000000000000000000000000000003
:0e18a900000000000000000000000000000031
:2018b700000000000c302000000000000000000000000000000000000000000000000000b5
:0e18d700000000000000000000000000000003
:2018e500000000000c300000000000000000000000000000000000000000000000000000a7
:0e1905000000000000000000000000000000d4
:20191300000010000c30200000000000000000000000000000000000000000000000000048
:0e1933000000000000000000000000000000a6
:20194100000000000c3000000000000000000000000000000000000000000000000000004a
:0e196100000000000000000000000000000078
:20196f00000000000c302000000000000000000000000000000000000000000000000000fc
:0e198f0000000000000000000000000000004a
:20199d00000000000c300000000000000000000000000000000000000000000000000000ee
:0e19bd0000000000000000000000000000001c
:2019cb00000000000c302000000000000000000000000000000000000000000000000000a0
:0e19eb000000000000000000000000000000ee
:2019f900000000000c30000000000000000000000000000000000000000000000000000092
:0e1a19000000000000000000000000000000bf
:201a2700000000000c30200000000000000000000000000000000000000000000000000043
:0e1a4700000000000000000000000000000091
:201a5500000000000c30000000000000000000000000000000000000000000000000000035
:0e1a7500000000000000000000000000000063
:201a8300000000000c302000000000000000000000000000000000000000000000000000e7
:0e1aa300000000000000000000000000000035
:201ab100000000000c300000000000000000000000000000000000000000000000000000d9
:0e1ad100000000000000000000000000000007
:201adf00000000000c3020000000000000000000000000000000000000000000000000008b
:0e1aff000000000000000000000000000000d9
:201b0d00000000000c3000000000000000000000000000000000000000000000000000007c
:0e1b2d000000000000000000000000000000aa
:201b3b00000000000c3020000000000000000000000000000000000000000000000000002e
:0e1b5b0000000000000000000000000000007c
:201b6900000000000c30000000000000000000000000000000000000000000000000000020
:0e1b890000000000000000000000000000004e
:201b9700000000000c302000000000000000000000000000000000000000000000000000d2
:0e1bb700000000000000000000000000000020
:201bc500000000000c300000000000000000000000000000000000000000000000000000c4
:0e1be5000000000000000000000000000000f2
:201bf300000000000c30200000000000000000000000000000000000000000000000000076
:0e1c13000000000000000000000000000000c3
:201c2100000000000c30000000000000000000000000000000000000000000000000000067
:0e1c4100000000000000000000000000000095
:201c4f00000000000c30200000000000000000000000000000000000000000000000000019
:0e1c6f00000000000000000000000000000067
:201c7d00000000000c3000000000000000000000000000000000000000000000000000000b
:0e1c9d00000000000000000000000000000039
:201cab00000000000c302000000000000000000000000000000000000000000000000000bd
:0e1ccb0000000000000000000000000000000b
:201cd900000000000c300000000000000000000000000000000000000000000000000000af
:0e1cf9000000000000000000000000000000dd
:201d0700000000000c30200000000000000000000000000000000000000000000000000060
:0e1d27000000000000000000000000000000ae
:201d3500000000000c30000000000000000000000000000000000000000000000000000052
:0e1d5500000000000000000000000000000080
:201d6300000000000c30200000000000000000000000000000000000000000000000000004
:0e1d8300000000000000000000000000000052
:201d9100000000000c300000000000000000000000000000000000000000000000000000f6
:0e1db100000000000000000000000000000024
:201dbf00000000000c302000000000000000000000000000000000000000000000000000a8
:0e1ddf000000000000000000000000000000f6
:201ded00000000000c3000000000000000000000000000000000000000000000000000009a
:0e1e0d000000000000000000000000000000c7
:201e1b00000000000c3020000000000000000000000000000000000000000000000000004b
:0e1e3b00000000000000000000000000000099
:201e4900000000000c3000000000000000000000000000000000000000000000000000003d
:0e1e690000000000000000000000000000006b
:201e7700000000000c302000000000000000000000000000000000000000000000000000ef
:0e1e970000000000000000000000000000003d
:201ea500000000000c300000000000000000000000000000000000000000000000000000e1
:0e1ec50000000000000000000000000000000f
:201ed300000000000c30200000000000000000000000000000000000000000000000000093
:0e1ef3000000000000000000000000000000e1
:201f0100000000000c30000000000000000000000000000000000000000000000000000084
:0e1f21000000000000000000000000000000b2
:201f2f00000000000c30200000000000000000000000000000000000000000000000000036
:0e1f4f00000000000000000000000000000084
:201f5d00000000000c30000000000000000000000000000000000000000000000000000028
:0e1f7d00000000000000000000000000000056
:201f8b00000000000c302000000000000000000000000000000000000000000000000000da
:0e1fab00000000000000000000000000000028
:201fb900000000000c300000000000000000000000000000000000000000000000000000cc
:0e1fd9000000000000000000000000000000fa
:201fe700000000000c3020000000000000000000000000000000000000000000000000007e
:0e2007000000000000000000000000000000cb
:202015000000000000000000000000000000000000000000000000000000000000000000ab
:0e20350000000000000000000000000000009d
:2020430010000000000000000000000000000000000000000000000000000000000000006d
:0e20630000000000000000000000000000006f
:2020710000000000000000000000000000000000000000000000000000000000000000004f
:0e209100000000000000000000000000000041
:20209f00000000000000000000000000000000000000000000000000000000000000000021
:0e20bf00000000000000000000000000000013
:2020cd000000000000000000000000000000000000000000000000000000000000000000f3
:0e20ed000000000000000000000000000000e5
:2020fb000000000000000000000000000000000000000000000000000000000000000000c5
:0e211b000000000000000000000000000000b6
:20212900000000000000000000000000000000000000000000000000000000000000000096
:0e214900000000000000000000000000000088
:20215700000000000000000000000000000000000000000000000000000000000000000068
:0e21770000000000000000000000000000005a
:2021850000a00000000000000000000000000000000000000000000000000000000000009a
:0e21a50000000000000000000000000000002c
:2021b30000000000000000000000000000000000000000000000000000000000000000000c
:0e21d3000000000000000000000000000000fe
:2021e1000000000000000000000000000000000000000000000000000000000000000000de
:0e2201000000000000000000000000000000cf
:20220f000000000000000000000000000000000000000000000000000000000000000000af
:0e222f000000000000000000000000000000a1
:20223d00000000000000000000000000000000000000000000000000000000000000000081
:0e225d00000000000000000000000000000073
:20226b00000000000000000000000000000000000000000000000000000000000000000053
:0e228b00000000000000000000000000000045
:20229900000000000000000000000000000000000000000000000000000000000000000025
:0e22b900000000000000000000000000000017
:2022c7000000000000000000000000000000000000000000000000000000000000000000f7
:0e22e7000000000000000000000000000000e9
:2022f5000000000000000000000000000000000000000000000000000000000000000000c9
:0e2315000000000000000000000000000000ba
:2023230000000000000000000000000000000000000000000000000000000000000000009a
:0e23430000000000000000000000000000008c
:2023510000000000000000000000000000000000000000000000000000000000000000006c
:0e23710000000000000000000000000000005e
:20237f00010000000000000400000000000000000000000000000000000000000000000039
:0e239f00000000000000000000000000000030
:2023ad00000000000000000000000000000000000000000000000000000000000000000010
:0e23cd00000000000000000000000000000002
:2023db000000000000000000000000000000000000000000000000000000000000000000e2
:0e23fb000000000000000000000000000000d4
:202409000000000000000000000000000000000000000000000000000000000000000000b3
:0e2429000000000000000000000000000000a5
:20243700000000000000000000000000000000000000000000000000000000000000000085
:0e245700000000000000000000000000000077
:20246500000000000ff0000000000000000000000000000000000000000000000000000058
:0e248500000000000000000000000000000049
:20249300000000000ff0180000000000000000000000000000000000000000000000000012
:0e24b30000000000000000000000000000001b
:2024c1000000000000000000000000000000000000000000000000000000000000000000fb
:0e24e1000000000000000000000000000000ed
:2024ef000000000000000000000000000000000000000000000000000000000000000000cd
:0e250f000000000000000000000000000000be
:20251d0000000000000000000000000000000000000000000000000000000000000000009e
:0e253d00000000000000000000000000000090
:20254b00000000000000000000000000000000000000000000000000000000000000000070
:0e256b00000000000000000000000000000062
:20257900000010000000000000000000000000000000000000000000000000000000000032
:0e259900000000000000000000000000000034
:2025a700000000000000000000000000000000000000000000000000000000000000000014
:0e25c700000000000000000000000000000006
:2025d5000000000000000000000000000000000000000000000000000000000000000000e6
:0e25f5000000000000000000000000000000d8
:202603000000000000000000000000000000000000000000000000000000000000000000b7
:0e2623000000000000000000000000000000a9
:20263100000000000000000000000000000000000000000000000000000000000000000089
:0e26510000000000000000000000000000007b
:20265f0010000000000000000000000000000000000000000000000000000000000000004b
:0e267f0000000000000000000000000000004d
:20268d0000000000000000000000000000000000000000000000000000000000000000002d
:0e26ad0000000000000000000000000000001f
:2026bb000000000000000000000000000000000000000000000000000000000000000000ff
:0e26db000000000000000000000000000000f1
:2026e9000000000000000000000000000000000000000000000000000000000000000000d1
:0e2709000000000000000000000000000000c2
:202717000000000000000000000000000000000000000000000000000000000000000000a2
:0e273700000000000000000000000000000094
:20274500000000000000000000000000000000000000000000000000000000000000000074
:0e276500000000000000000000000000000066
:20277300100000000000000000000000000000000000000000000000000000000000000036
:0e279300000000000000000000000000000038
:2027a100000000000000000000000000000000000000000000000000000000000000000018
:0e27c10000000000000000000000000000000a
:2027cf000000000000000000000000000000000000000000000000000000000000000000ea
:202b95004000020000000100000000000000000000000000000000000000000000000000dd
:0e2bb500000000000000000000000000000012
:202bc30040000000000003000000000000004000000000000000000000000000000000006f
:0e2be3000000000000000000000000000000e4
:202bf1000000040000000000010800000000000000000000000000000000000000000000b7
:0e2c11000000000000000000000000000000b5
:202c1f00000007000000000009810000000000000000000000000000000000000000000004
:0e2c3f00000000000000000000000000000087
:202c4d0000000000000000000f000000000000000000000000000000000000000000000058
:0e2c6d00000000000000000000000000000059
:202c7b00000000000000000008000000000000000000000000000000000000000000000031
:0e2c9b0000000000000000000000000000002b
:202ca900000002000000000000000000000000000000000000000000000000000000000009
:0e2cc9000000000000000000000000000000fd
:202cd7000000000000000000000000000000000000000000000000000000000000000000dd
:0e2cf7000000000000000000000000000000cf
:202d05000000000000000000000000000000000000000000000000000000000000000000ae
:0e2d25000000000000000000000000000000a0
:202d3300000000000000000000000000000000000000000000000000000000000000000080
:0e2d5300000000000000000000000000000072
:202d6100c002c0000000000000000825820000000000000000000000000000000000000021
:0e2d8100000000000000000000000000000044
:202d8f00c0020000000000000000722590000000000000000000000000000000000000003b
:0e2daf00000000000000000000000000000016
:202dbd008001403da23002000000002580000000000000000000000000000000000000007f
:0e2ddd000000000000000000000000000000e8
:202deb0060000020c134098000007225b00000000000000000000000000000000000000083
:0e2e0b000000000000000000000000000000b9
:202e19000000002d0050000000000025810000000000000000000000000000000000000076
:0e2e3900000000000000000000000000000289
:202e470000000015e554080000007225b000000000000000000000000000000000000000ce
:0e2e670000000000000000000000000000005d
:022e750000005b
:032e770072007076
:022e7a00110243
:022e7c00010152
:202e7e00000000000000000002000000000000080000000002000000000000080000000020
:0e2e9e00000020000000000000800000000086
:202eac000000000000000000010000000000000400000000010000000000000400000000fc
:0e2ecc000000100000000000004000000000a8
:202eda000000000000000000000000000000000000000000000000000000000000000000d8
:0e2efa000000000000000000000000000000ca
:202f08000000000000000000000000000000000000000000000000000000000000000000a9
:0e2f280000000000000000000000000000009b
:202f360000000000000000000000000000000000000000000000000000000000000000007b
:0e2f560000000000000000000000000000006d
:202f640000000000000000000000000000000000000000000000000000000000000000004d
:0e2f840000000000000000000000000000003f
:202f920000000000000000000000000000000000000000000000000000000000000000001f
:0e2fb200000000000000000000000000000011
:202fc0000000000000000000000000000000000000000000000000000000000000000000f1
:0e2fe0000000000000000000000000000000e3
:202fee000000000000000000000000000000000000000000000000000000000000000000c3
:0e300e000000000000000000000000000000b4
:20301c00000000000000000000000000000000000000000000000000000000000000000094
:0e303c00000000000000000000000000000086
:20304a00000000000000000000000000000000000000000000000000000000000000000066
:0e306a00000000000000000000000000000058
:20307800000000000000000000000000000000000000000000000000000000000000000038
:0e30980000000000000000000000000000002a
:2030a60000000000000000000000000000000000000000000000000000000000000000000a
:0e30c6000000000000000000000000000000fc
:2030d4000000000000000000000000000000000000000000000000000000000000000000dc
:0e30f4000000000000000000000000000000ce
:203102000000000000000000000000000000000000000000000000000000000000000000ad
:0e31220000000000000000000000000000009f
:2031300000000000000000000000000000000000000000000000000000000000000000007f
:0e315000000000000000000000000000000071
:20315e001030c000000200000000000000000000000000000000000000000000000000004f
:0e317e00000000000000000000000000000043
:20318c000030c0000000000000000000000000000000000000000000000000000000000033
:0e31ac00000000000000000000000000000015
:2031ba001030c0000000000000000000000000000000000000000000008000000000000075
:0e31da000000000000000000000000000000e7
:2031e8000030c00000000000000000000000000000000000000000000000000000000000d7
:0e3208000000000000000000000000000000b8
:203216001030c0000000000000000000000000000000000000000000000000000000000098
:0e32360000000000000000000000000000008a
:203244000030c000000000000000000000000000000000000000000000000000000000007a
:0e32640000000000000000000000000000005c
:203272001030c000000000000000000000000000000000000000000000000000000000003c
:0e32920000000000000000000000000000002e
:2032a0000030c000000000000000000000000000000000000000000000000000000000001e
:0e32c000000000000000000000000000000000
:2032ce001030c00000000000000000000000000000000000000000000000000000000000e0
:0e32ee000000000000000000000000000000d2
:2032fc000030c00000000000000000000000000000000000000000000000000000000000c2
:0e331c000000000000000000000000000000a3
:20332a001030c0000000000000000000000000000000000000000000000000000000000083
:0e334a00000000000000000000000000000075
:203358000030c0000000000000000000000000000000000000000000000000000000000065
:0e337800000000000000000000000000000047
:203386001030c0000000000000000000000000000000000000000000000000000000000027
:0e33a600000000000000000000000000000019
:2033b4000030c0000000000000000000000000000000000000000000000000000000000009
:0e33d4000000000000000000000000000000eb
:2033e2001030c00000000000000000000000000000000000000000000000000000000000cb
:0e3402000000000000000000000000000000bc
:203410000030c00000000000000000000000000000000000000000000000000000000000ac
:0e34300000000000000000000000000000008e
:20343e001030c18000000000000000000000000000000000000000000000000000000000ed
:0e345e00000000000000000000000000000060
:20346c000030c100000000000000000000000000000000000000000000000000000000004f
:0e348c00000000000000000000000000000032
:20349a001030c007800000000000000000000000000000000000000000000000000000008b
:0e34ba00000000000000000000000000000004
:2034c8000030c0008000000000000000000000000000000000000000000000000000000074
:0e34e8000000000000000000000000000000d6
:2034f6001030c00000000000000000000000000000000000000000000000000000000000b6
:0e3516000000000000000000000000000000a7
:203524000030c0000000000000000000000000000000000000000000000000000000000097
:0e354400000000000000000000000000000079
:203552001030c0000000000000000000000000000000000000000000000000000000000059
:0e35720000000000000000000000000000004b
:203580000030c000000000000000000000000000000000000000000000000000000000003b
:0e35a00000000000000000000000000000001d
:2035ae001030c00000000000000000000000000000000000000000000000000000000000fd
:0e35ce000000000000000000000000000000ef
:2035dc000030c00000000000000000000000000000000000000000000000000000000000df
:0e35fc000000000000000000000000000000c1
:20360a001030c00000000000000000000000000000000000000000000000000000000000a0
:0e362a00000000000000000000000000000092
:203638000030c0000000000000000000000000000000000000000000000000000000000082
:0e365800000000000000000000000000000064
:203666001030c0000000000000000000400000000000000000000000000000000000000004
:0e368600000000000000000000000000000036
:203694000030c0000000000000000000000000000000000000000000000000000000000026
:0e36b400000000000000000000000000000008
:2036c2001030c00000000000000000000000000000000000000000000000000000000000e8
:0e36e2000000000000000000000000000000da
:2036f0000030c00000000000000000000000000000000000000000000000000000000000ca
:0e3710000000000000000000000000000000ab
:20371e001030c000000000000000000000000000000000000000000000000000000000008b
:0e373e0000000000000000000000000000007d
:20374c000030c000000000000000000000000000000000000000000000000000000000006d
:0e376c0000000000000000000000000000004f
:20377a001030c00000000000000000000000000000000000000000000080000000000000af
:0e379a00000000000000000000000000000021
:2037a8000030c0000000000000000000000000000000000000000000000000000000000011
:0e37c8000000000000000000000000000000f3
:2037d6001030c00000000000000000000000000000000000000000000000000000000000d3
:0e37f6000000000000000000000000000000c5
:203804000030c00000000000000000000000000000000000000000000000000000000000b4
:0e382400000000000000000000000000000096
:203832001030c0000000000000000000000000000000000000000000000000000000000076
:0e385200000000000000000000000000000068
:203860000030c0000000000000000000000000000000000000000000000000000000000058
:0e38800000000000000000000000000000003a
:20388e001030c000000000000000000000000000000000000000000000000000000000001a
:0e38ae0000000000000000000000000000000c
:2038bc000030c00000000000000000000000000000000000000000000000000000000000fc
:0e38dc000000000000000000000000000000de
:2038ea001030c00000000000000000000000000000000000000000000000000000000000be
:0e390a000000000000000000000000000000af
:203918000030c000000000000000000000000000000000000000000000000000000000009f
:0e393800000000000000000000000000000081
:203946001030c0000000000000000000000000000000000000000000000000000000000061
:0e396600000000000000000000000000000053
:203974000030c0000000000000000000000000000000000000000000000000000000000043
:0e399400000000000000000000000000000025
:2039a2001030c0000000000000000000000000000000000000000000000000000000000005
:0e39c2000000000000000000000000000000f7
:2039d0000030c00000000000000000000000000000000000000000000000000000000000e7
:0e39f0000000000000000000000000000000c9
:2039fe000000000000000000000000000000000000000000000000000000000000000000a9
:0e3a1e0000000000000000000000000000009a
:203a2c0000000000000000000000000000000000000000000000000000000000000000007a
:0e3a4c0000000000000000000000000000006c
:203a5a0000000000000000000000000000000000000000000000000000000000000000004c
:0e3a7a0000000000000000000000000000003e
:203a880000000000000000000000000000000000000000000000000000000000000000001e
:0e3aa800000000000000000000000000000010
:203ab6000000000000000000000000000000000000000000000000000000000000000000f0
:0e3ad6000000000000000000000000000000e2
:203ae4000000000000000000000000000000000000000000000000000000000000000000c2
:0e3b04000000000000000000000000000000b3
:203b1200000000000000000000000000000000000000000000000000000000000000000093
:0e3b3200000000000000000000000000000085
:203b4000000000000000000000000000000000000000000000000000000000000000000065
:0e3b6000000000000000000000000000000057
:203b6e00000000000000000000000000000000000000000000000000000000000000000037
:0e3b8e00000000000000000000000000000029
:203b9c00000000000000000000000000000000000000000000000000000000000000000009
:0e3bbc000000000000000000000000000000fb
:203bca000000000000000000000000000000000000000000000000000000000000000000db
:0e3bea000000000000000000000000000000cd
:203bf8000000000000000000000000000000000000000000000000000000000000000000ad
:0e3c180000000000000000000000000000009e
:203c260000000000000000000000000000000000000000000000000000000000000000007e
:0e3c4600000000000000000000000000a000d0
:203c5400000000000000000000000000000000000000000000000000000000000000000050
:0e3c7400000000000000000000000000400002
:203c8200000000000000000000000000000000000000000000000000000000000000000022
:0e3ca200000000000000000000000000000014
:203cb0000000000000000000000000000000000000000000000000000000000000000000f4
:0e3cd0000000000000000000000000000000e6
:203cde000000000000000000000000000000000000000000000000000000000000000000c6
:0e3cfe000000000000000000000000000000b8
:203d0c00000000000000000000000000000000000000000000000000000000000000000097
:0e3d2c00000000000000000000000000000089
:203d3a00000000000000000000000000000000000000000000000000000000000000000069
:0e3d5a0000000000000000000000000000005b
:203d680000000000000000000000000000000000000000000000000000000000000000003b
:0e3d880000000000000000000000000000002d
:203d960000000000000000000000000000000000000000000000000000000000000000000d
:0e3db6000000000000000000000000000000ff
:203dc40000000000000000000000008000000000000000000000000000000000000000005f
:0e3de4000000000000000000000000000000d1
:203df2000000000000000000000000000000000000000000000000000000000000000000b1
:0e3e12000000000000000000000000000000a2
:203e2000000000000000000000000000000000000000000000000000000000000000000082
:02429e0000001e
:0342a00072009019
:0242a300110305
:0242a500010115
:2042a7000000000000000000020000000000000800000000000000100200000800000000d3
:0e42c700000020000000000000800000000049
:2042d5000000000000000000010000000000000400000000010000a000000004000000001f
:0e42f50000001000000000000040000000006b
:20430300000000000000000000000000000000000000000000000000020000000000000098
:0e43230000000000000000000000000000008c
:2043310000000000000000000000000000000000000000000200000000000000000000006a
:0e43510000000000000000000000000000005e
:20435f00000000000000000000000000000000000000000000d0000001000000000000006d
:0e437f00000000000000000000000000000030
:20438d00000000000000000000000000000000000000000000e00000000000000000000030
:0e43ad00000000000000000000000000000002
:2043bb00000000000000000000000000000000000000000000008000000000000000000062
:0e43db000000000000000000000000000000d4
:2043e9000000000000000000000000000000000000000000000000000100000000000000b3
:0e4409000000000000000000000000000000a5
:2044170000000000000000000000000000000000000000000200c0000000000000000000c3
:0e443700000000000000000000000000000077
:20444500000000000000000000000000000000000000000000000000000000000000000057
:0e446500000000000000000000400000000009
:204473000000000000000000000000000000000000000000000000a0000000000000000089
:0e44930000000000000000000000000000001b
:2044a1000000000000000000000000000000000000000000000000100000000000000000eb
:0e44c1000000000000000000000000000000ed
:2044cf000000000000000000000000000000000000000000000000000000000000000000cd
:0e44ef000000000000000000000000000000bf
:2044fd0000000000000000000000000000000000000000000000000002000000000000009d
:0e451d00000000000000000000000000000090
:20452b000000000000000000000000000000000000000000000080000200000000000000ee
:0e454b00000000000000000000400000000022
:20455900000000000000000000000000000000000000000000000000000000000000000042
:0e457900000000000000000000000000000034
:204587000030c0000000000000000000000000000000000000000000000000000000000024
:0e45a700000000000000000000000000000006
:2045b5001030c00000000000000000000000000000000000000000000000000000000000e6
:0e45d5000000000000000000000000000000d8
:2045e3000030c00000000000000000000000000000000000000000000000000000000000c8
:0e4603000000000000000000000000000000a9
:204611001030c0000000000000000000000000000000000000000000000000000000000089
:0e46310000000000000000000000000000007b
:20463f000030c000000000000000000000000000000000000000000000000000000000006b
:0e465f0000000000000000000000000000004d
:20466d001030c000000000000000000000000000000000000000000000000000000000002d
:0e468d0000000000000000000000000000001f
:20469b000030c000000000000000000000000000000000000000000000000000000000000f
:0e46bb000000000000000000000000000000f1
:2046c9001030c00000000000000000000000000000000000000000000000000000000000d1
:0e46e9000000000000000000000000000000c3
:2046f7000030c00000000000000000000000000000000000000000000000000000000000b3
:0e471700000000000000000000000000000094
:204725001030c0000000000000000000000000000000000000000000000000000000000074
:0e474500000000000000000000000000000066
:204753000030c0000000000000000000000000000000000000000000000000000000000056
:0e477300000000000000000000000000000038
:204781001030c0000000000000000000000000000000000000000000000000000000000018
:0e47a10000000000000000000000000000000a
:2047af000030c00000000000000000000000000000000000000000000000000000000000fa
:0e47cf000000000000000000000000000000dc
:2047dd001030c00000000000000000000000000000000000000000000000000000000000bc
:0e47fd000000000000000000000000000000ae
:20480b000030c000000000000000000000000000000000000000000000000000000000009d
:0e482b0000000000000000000000000000007f
:204839001030c000000000000000000000000000000000000000000000000000000000005f
:0e485900000000000000000000000000000051
:204867000030c0000000000000000000000000000000000000000000000000000000000041
:0e488700000000000000000000000000000023
:204895001030c0000000000000000000000000000000000000000000000000000000000003
:0e48b5000000000000000000000000000000f5
:2048c3000030c00000000000000000000000000000000000000000000000000000000000e5
:0e48e3000000000000000000000000000000c7
:2048f1001030c00000000000000000000000000000000000000000000000000000000000a7
:0e491100000000000000000000000000000098
:20491f000030c0000000000000000000000000000000000000000000000000000000000088
:0e493f0000000000000000000000000000006a
:20494d001030c000000000000000000000000000000000000000000000000000000000004a
:0e496d0000000000000000000000000000003c
:20497b000030c000000000000000000000000000000000000000000000000000000000002c
:0e499b0000000000000000000000000000000e
:2049a9001030c00000000000000000000000000000000000000000000000000000000000ee
:0e49c9000000000000000000000000000000e0
:2049d7000030c00000000000000000000000000000000000000000000000000000000000d0
:0e49f7000000000000000000000000000000b2
:204a05001030c0000000000000000000000000000000000000000000000000000000000091
:0e4a2500000000000000000000000000000083
:204a33000030c0000000000000000000000000000000000000000000000000000000000073
:0e4a5300000000000000000000000000000055
:204a61001030c0000000000000000000000000000000000000000000000000000000000035
:0e4a8100000000000000000000000000000027
:204a8f000030c0000000000000000000000000000000000000000000000000000000000017
:0e4aaf000000000000000000000000000000f9
:204abd001030c00000000000000000000000000000000000000000000000000000000000d9
:0e4add000000000000000000000000000000cb
:204aeb000030c00000000000000000000000000000000000000000000000000000000000bb
:0e4b0b0000000000000000000000000000009c
:204b19001030c00000000000000000000000000000000000000000000080000000000000fc
:0e4b390000000000000000000000000000006e
:204b47000030c000000000000000000000000000000000000000000000000000000000005e
:0e4b6700000000000000000000000000000040
:204b75001030c0000000000000000000000000000000000000000000000000000000000020
:0e4b9500000000000000000000000000000012
:204ba3000030c0000000000000000000000000000000000000000000000000000000000002
:0e4bc3000000000000000000000000000000e4
:204bd1001030c00000000000000000000000000000000000000000000000000000000000c4
:0e4bf1000000000000000000000000000000b6
:204bff000030c00000000000000000000000000000000000000000000000000000000000a6
:0e4c1f00000000000000000000000000000087
:204c2d001030c0000000000000000000000000000000000000000000000000000000000067
:0e4c4d00000000000000000000000000000059
:204c5b000030c0000000000000000000000000000000000000000000000000000000000049
:0e4c7b0000000000000000000000000000002b
:204c89001030c000000000000000000000000000000000000000000000000000000000000b
:0e4ca9000000000000000000000000000000fd
:204cb7000030c00000000000000000000000000000000000000000000000000000000000ed
:0e4cd7000000000000000000000000000000cf
:204ce5001030c00000000000000000000000000000000000000000000000000000000000af
:0e4d05000000000000000000000000000000a0
:204d13000030c0000000000000000000000000000000000000000000000000000000000090
:0e4d3300000000000000000000000000000072
:204d41001030c0000000000000000000000000000000000000000000000000000000000052
:0e4d6100000000000000000000000000000044
:204d6f000030c0000000000000000000000000000000000000000000000000000000000034
:0e4d8f00000000000000000000000000000016
:204d9d001030c00000000000000000000000000000000000000000000000000000000000f6
:0e4dbd000000000000000000000000000000e8
:204dcb000030c00000000000000000000000000000000000000000000000000000000000d8
:0e4deb000000000000000000000000000000ba
:204df9001030c000000000000000000000000000000000000000000000000000000000009a
:0e4e190000000000000000000000000000008b
:204e270000000000000000000000000000000000000000000000000000000000000000006b
:0e4e470000000000000000000000000000005d
:204e550000000000000000000000000000000000000000000000000000000000000000003d
:2054fb00000000000000000000000000008000000000000000000000000000000000000011
:0e551b00000000000000000000000000000082
:20552900000000000000000000000000000000000000000000000000000000000000000062
:0e554900000000000000000000000000000054
:20555700000000000000000000000000000000000000000000000000000000000000000034
:025c870000001b
:035c890072008026
:025c8c00110005
:035c8e0062002f82
:035c91008200008e
:025c940001030a
:065c960000000000000008
:065c9c0000000000000002
:065ca200000000000000fc
:065ca800000000000000f6
:065cae00000000000000f0
:065cb400000000000000ea
:065cba00000000000000e4
:065cc000000000000000de
:065cc600000000000000d8
:065ccc00000000000000d2
:065cd200000000000000cc
:065cd800000000000000c6
:065cde00000000000000c0
:065ce400000000000000ba
:065cea00000000000000b4
:065cf000000000000000ae
:065cf600000000000000a8
:065cfc00000000000000a2
:065d02000000000000009b
:065d080000000000000095
:065d0e000000000000008f
:065d140000000000000089
:065d1a0000000000000083
:065d20000000000000007d
:065d260000000000000077
:065d2c0000000000000071
:065d32000000000000006b
:065d380000000000000065
:065d3e000000000000005f
:065d440000000000000059
:065d4a0000000000000053
:065d50000000000000004d
:065d560000000000000047
:065d5c0000000000000041
:065d62000000000000003b
:065d680000000000000035
:065d6e000000000000002f
:065d740000000000000029
:065d7a0000000000000023
:065d80000000000000001d
:065d860000000000000017
:065d8c0000000000000011
:065d92000000000000000b
:065d980000000000000005
:065d9e00000000000000ff
:065da400000000000000f9
:065daa00000000000000f3
:065db000000000000000ed
:065db600000000000000e7
:065dbc00000000000000e1
:065dc200000000000000db
:065dc800000000000000d5
:065dce00000000000000cf
:065dd400000000000000c9
:065dda00000000000000c3
:065de000000000000000bd
:065de600000000000000b7
:065dec00000000000000b1
:065df200000000000000ab
:065df800000000000000a5
:065dfe000000000000009f
:065e040000000000000098
:065e0a0000000000000092
:065e10000000000000008c
:065e160000000000000086
:065e1c0000000000000080
:065e22000000000000007a
:065e280000000000000074
:065e2e000000000000006e
:065e340000000000000068
:065e3a0000000000000062
:065e40000000000000005c
:065e460000000000000056
:065e4c0000000000000050
:065e52000000000000004a
:065e580000000000000044
:065e5e000000000000003e
:065e640000000000000038
:065e6a0000000000000032
:065e70000000000000002c
:065e760000000000000026
:065e7c0000000000000020
:065e82000000000000001a
:065e880000000000000014
:065e8e000000000000000e
:065e940000000000000008
:065e9a0000000000000002
:065ea000000000000000fc
:065ea600000000000000f6
:065eac00000000000000f0
:065eb200000000000000ea
:065eb800000000000000e4
:065ebe00000000000000de
:065ec400000000000000d8
:065eca00000000000000d2
:065ed000000000000000cc
:065ed600000000000000c6
:065edc00000000000000c0
:065ee200000000000000ba
:065ee800000000000000b4
:065eee00000000000000ae
:065ef400000000000000a8
:065efa00000000000000a2
:065f00000000000000009b
:065f060000000000000095
:065f0c000000000000008f
:065f120000000000000089
:065f180000000000000083
:065f1e000000000000007d
:065f240000000000000077
:065f2a0000000000000071
:065f30000000000000006b
:065f360000000000000065
:065f3c000000000000005f
:065f420000000000000059
:065f480000000000000053
:065f4e000000000000004d
:065f540000000000000047
:065f5a0000000000000041
:065f60000000000000003b
:065f660000000000000035
:065f6c000000000000002f
:065f720000000000000029
:065f780000000000000023
:065f7e000000000000001d
:065f840000000000000017
:065f8a0000000000000011
:065f90000000000000000b
:025f9600000009
:035f980082008004
:025f9b00010300
:065f9d00000000000000fe
:065fa300000000000000f8
:065fa900000000000000f2
:065faf00000000000000ec
:065fb500000000000000e6
:065fbb00000000000000e0
:065fc100000000000000da
:065fc700000000000000d4
:065fcd00000000000000ce
:065fd300000000000000c8
:065fd900000000000000c2
:065fdf00000000000000bc
:065fe500000000000000b6
:065feb00000000000000b0
:065ff100000000000000aa
:065ff700000000000000a4
:065ffd000000000000009e
:0660030000000000000097
:0660090000000000000091
:06600f000000000000008b
:0660150000000000000085
:06601b000000000000007f
:0660210000000000000079
:0660270000000000000073
:06602d000000000000006d
:0660330000000000000067
:0660390000000000000061
:06603f000000000000005b
:0660450000000000000055
:06604b000000000000004f
:0660510000000000000049
:0660570000000000000043
:06605d000000000000003d
:0660630000000000000037
:0660690000000000000031
:06606f000000000000002b
:0660750000000000000025
:06607b000000000000001f
:0660810000000000000019
:0660870000000000000013
:06608d000000000000000d
:0660930000000000000007
:0660990000000000000001
:06609f00000000000000fb
:0660a500000000000000f5
:0660ab00000000000000ef
:0660b100000000000000e9
:0660b700000000000000e3
:0660bd00000000000000dd
:0660c300000000000000d7
:0660c900000000000000d1
:0660cf00000000000000cb
:0660d500000000000000c5
:0660db00000000000000bf
:0660e100000000000000b9
:0660e700000000000000b3
:0660ed00000000000000ad
:0660f300000000000000a7
:0660f900000000000000a1
:0660ff000000000000009b
:0661050000000000000094
:06610b000000000000008e
:0661110000000000000088
:0661170000000000000082
:06611d000000000000007c
:0661230000000000000076
:0661290000000000000070
:06612f000000000000006a
:0661350000000000000064
:06613b000000000000005e
:0661410000000000000058
:0661470000000000000052
:06614d000000000000004c
:0661530000000000000046
:0661590000000000000040
:06615f000000000000003a
:0661650000000000000034
:06616b000000000000002e
:0661710000000000000028
:0661770000000000000022
:06617d000000000000001c
:0661830000000000000016
:0661890000000000000010
:06618f000000000000000a
:0661950000000000000004
:06619b00000000000000fe
:0661a100000000000000f8
:0661a700000000000000f2
:0661ad00000000000000ec
:0661b300000000000000e6
:0661b900000000000000e0
:0661bf00000000000000da
:0661c500000000000000d4
:0661cb00000000000000ce
:0661d100000000000000c8
:0661d700000000000000c2
:0661dd00000000000000bc
:0661e300000000000000b6
:0661e900000000000000b0
:0661ef00000000000000aa
:0661f500000000000000a4
:0661fb000000000000009e
:0662010000000000000097
:0662070000000000000091
:06620d000000000000008b
:0662130000000000000085
:066219000000000000007f
:06621f0000000000000079
:0662250000000000000073
:06622b000000000000006d
:0662310000000000000067
:0662370000000000000061
:06623d000000000000005b
:0662430000000000000055
:066249000000000000004f
:06624f0000000000000049
:0662550000000000000043
:06625b000000000000003d
:0662610000000000000037
:0662670000000000000031
:06626d000000000000002b
:0662730000000000000025
:066279000000000000001f
:06627f0000000000000019
:0662850000000000000013
:06628b000000000000000d
:0662910000000000000007
:0662970000000000000001
:02629d000000ff
:02629f001101eb
:0362a10062003f59
:0362a40082000075
:0262a7000103f1
:0862a9000000000000000000ed
:0862b1000000000000000000e5
:0862b9000000000000000000dd
:0862c1000000000000000000d5
:0266a9000000ef
:0366ab00820080ea
:0266ae000103e6
:0866b0000000000000000000e2
:0866b8000000000000000000da
:0866c0000000000000000000d2
:0866c8000000000000000000ca
:026ab0000000e4
:026ab2001102cf
:036ab40062002f4e
:036ab7008200005a
:026aba000103d6
:066abc00000000000000d4
:066ac200000000000000ce
:066ac800000000000000c8
:066ace00000000000000c2
:066ad400000000000000bc
:066ada00000000000000b6
:066ae000000000000000b0
:066ae600000000000000aa
:066aec00000000000000a4
:066af2000000000000009e
:066af80000000000000098
:066afe0000000000000092
:066b04000000000000008b
:066b0a0000000000000085
:066b10000000000000007f
:066b160000000000000079
:066b1c0000000000000073
:066b22000000000000006d
:066b280000000000000067
:066b2e0000000000000061
:066b34000000000000005b
:066b3a0000000000000055
:066b40000000000000004f
:066b460000000000000049
:066b4c0000000000000043
:066b52000000000000003d
:066b580000000000000037
:066b5e0000000000000031
:066b64000000000000002b
:066b6a0000000000000025
:066b70000000000000001f
:066b760000000000000019
:066b7c0000000000000013
:066b82000000000000000d
:066b880000000000000007
:066b8e0000000000000001
:066b9400000000000000fb
:066b9a00000000000000f5
:066ba000000000000000ef
:066ba600000000000000e9
:066bac00000000000000e3
:066bb200000000000000dd
:066bb800000000000000d7
:066bbe00000000000000d1
:066bc400000000000000cb
:066bca00000000000000c5
:066bd000000000000000bf
:066bd600000000000000b9
:066bdc00000000000000b3
:066be200000000000000ad
:066be800000000000000a7
:066bee00000000000000a1
:066bf4000000000000009b
:066bfa0000000000000095
:066c00000000000000008e
:066c060000000000000088
:066c0c0000000000000082
:066c12000000000000007c
:066c180000000000000076
:066c1e0000000000000070
:066c24000000000000006a
:066c2a0000000000000064
:066c30000000000000005e
:066c360000000000000058
:066c3c0000000000000052
:066c42000000000000004c
:066c480000000000000046
:066c4e0000000000000040
:066c54000000000000003a
:066c5a0000000000000034
:066c60000000000000002e
:066c660000000000000028
:066c6c0000000000000022
:066c72000000000000001c
:066c780000000000000016
:066c7e0000000000000010
:066c84000000000000000a
:066c8a0000000000000004
:066c9000000000000000fe
:066c9600000000000000f8
:066c9c00000000000000f2
:066ca200000000000000ec
:066ca800000000000000e6
:066cae00000000000000e0
:066cb400000000000000da
:066cba00000000000000d4
:066cc000000000000000ce
:066cc600000000000000c8
:066ccc00000000000000c2
:066cd200000000000000bc
:066cd800000000000000b6
:066cde00000000000000b0
:066ce400000000000000aa
:066cea00000000000000a4
:066cf0000000000000009e
:066cf60000000000000098
:066cfc0000000000000092
:066d02000000000000008b
:066d080000000000000085
:066d0e000000000000007f
:066d140000000000000079
:066d1a0000000000000073
:066d20000000000000006d
:066d260000000000000067
:066d2c0000000000000061
:066d32000000000000005b
:066d380000000000000055
:066d3e000000000000004f
:066d440000000000000049
:066d4a0000000000000043
:066d50000000000000003d
:066d560000000000000037
:066d5c0000000000000031
:066d62000000000000002b
:066d680000000000000025
:066d6e000000000000001f
:066d740000000000000019
:066d7a0000000000000013
:066d80000000000000000d
:066d860000000000000007
:066d8c0000000000000001
:066d9200000000000000fb
:066d9800000000000000f5
:066d9e00000000000000ef
:066da400000000000000e9
:066daa00000000000000e3
:066db000000000000000dd
:066db600000000000000d7
:026dbc000000d5
:036dbe00820080d0
:026dc1000103cc
:066dc300000000000000ca
:066dc900000000000000c4
:066dcf00000000000000be
:066dd500000000000000b8
:066ddb00000000000000b2
:066de100000000000000ac
:066de700000000000000a6
:066ded00000000000000a0
:066df3000000000000009a
:066df90000000000000094
:066dff000000000000008e
:066e050000000000000087
:066e0b0000000000000081
:066e11000000000000007b
:066e170000000000000075
:066e1d000000000000006f
:066e230000000000000069
:066e290000000000000063
:066e2f000000000000005d
:066e350000000000000057
:066e3b0000000000000051
:066e41000000000000004b
:066e470000000000000045
:066e4d000000000000003f
:066e530000000000000039
:066e590000000000000033
:066e5f000000000000002d
:066e650000000000000027
:066e6b0000000000000021
:066e71000000000000001b
:066e770000000000000015
:066e7d000000000000000f
:066e830000000000000009
:066e890000000000000003
:066e8f00000000000000fd
:066e9500000000000000f7
:066e9b00000000000000f1
:066ea100000000000000eb
:066ea700000000000000e5
:066ead00000000000000df
:066eb300000000000000d9
:066eb900000000000000d3
:066ebf00000000000000cd
:066ec500000000000000c7
:066ecb00000000000000c1
:066ed100000000000000bb
:066ed700000000000000b5
:066edd00000000000000af
:066ee300000000000000a9
:066ee900000000000000a3
:066eef000000000000009d
:066ef50000000000000097
:066efb0000000000000091
:066f01000000000000008a
:066f070000000000000084
:066f0d000000000000007e
:066f130000000000000078
:066f190000000000000072
:066f1f000000000000006c
:066f250000000000000066
:066f2b0000000000000060
:066f31000000000000005a
:066f370000000000000054
:066f3d000000000000004e
:066f430000000000000048
:066f490000000000000042
:066f4f000000000000003c
:066f550000000000000036
:066f5b0000000000000030
:066f61000000000000002a
:066f670000000000000024
:066f6d000000000000001e
:066f730000000000000018
:066f790000000000000012
:066f7f000000000000000c
:066f850000000000000006
:066f8b0000000000000000
:066f9100000000000000fa
:066f9700000000000000f4
:066f9d00000000000000ee
:066fa300000000000000e8
:066fa900000000000000e2
:066faf00000000000000dc
:066fb500000000000000d6
:066fbb00000000000000d0
:066fc100000000000000ca
:066fc700000000000000c4
:066fcd00000000000000be
:066fd300000000000000b8
:066fd900000000000000b2
:066fdf00000000000000ac
:066fe500000000000000a6
:066feb00000000000000a0
:066ff1000000000000009a
:066ff70000000000000094
:066ffd000000000000008e
:0670030000000000000087
:0670090000000000000081
:06700f000000000000007b
:0670150000000000000075
:06701b000000000000006f
:0670210000000000000069
:0670270000000000000063
:06702d000000000000005d
:0670330000000000000057
:0670390000000000000051
:06703f000000000000004b
:0670450000000000000045
:06704b000000000000003f
:0670510000000000000039
:0670570000000000000033
:06705d000000000000002d
:0670630000000000000027
:0670690000000000000021
:06706f000000000000001b
:0670750000000000000015
:06707b000000000000000f
:0670810000000000000009
:0670870000000000000003
:06708d00000000000000fd
:06709300000000000000f7
:06709900000000000000f1
:06709f00000000000000eb
:0670a500000000000000e5
:0670ab00000000000000df
:0670b100000000000000d9
:0670b700000000000000d3
:0670bd00000000000000cd
:0270c3000000cb
:0270c5001103b5
:0370c70062003f25
:0370ca0082000041
:0270cd000103bd
:0870cf000000000000000000b9
:0870d7000000000000000000b1
:0870df000000000000000000a9
:0870e7000000000000000000a1
:0274cf000000bb
:0374d100820080b6
:0274d4000103b2
:0874d6000000000000000000ae
:0874de000000000000000000a6
:0874e60000000000000000009e
:0874ee00000000000000000096
:0278d6000000b0
:0178d800228d
:0278d9009348d2
:0278db000106a4
:00000001FF
