:02000000ff00ff
:080002004c6174746963650030
:17000a00694345637562653220323032302e31322e32373934330071
:16002100506172743a206943453430554c314b2d535747313600e1
:1b003700446174653a2041707220323020323032322031353a32323a30370086
:0200520000ffad
:040054007eaa997e69
:02005800510055
:02005a0001059e
:03005c00920020ef
:03005f0062016fcc
:0300620082000019
:03006500720070b6
:02006800110085
:02006a00010192
:20006c000000000000000000000000100000000000004000000000000100000000004000e3
:0e008c00000000000100000000000004000061
:20009a00000000000000000000000020000000000000800000000000020000000000800024
:0e00ba0000000000020000000000000800002e
:2000c800000000000000000000000000000000000000000000000000000000000004000014
:0e00e80000000000000000000000000000000a
:2000f60000000000000000000000000000000000000000000000000c0000000000000000de
:0e0116000000000000000000000000000000db
:200124000000000000000000000000000000000000000000000000040000000000000000b7
:0e0144000000000000000000000000000000ad
:2001520000000000000000000000000000000000000000000000000000000000000000008d
:0e01720000000000000000000000000000007f
:2001800000000000000000000000000000000000000000000000000000000000000000005f
:0e01a000000000000000000000b000000000a1
:2001ae00000000000000000000000000000000000000000000000000000000000000000031
:0e01ce000000000000000000008000000000a3
:2001dc00000000000000000000000000000000000000000000000000000000000000000003
:0e01fc000000000000000000000000000000f5
:20020a000000000000000000000000000000000000000000000000000000000000000000d4
:0e022a000000000000000000000000000000c6
:200238000000000000000000000000000000000000000000000000000000000000000000a6
:0e025800000000000000000000000008000090
:20026600000000000000000000000000000000000000000000000000000000000000000078
:0e028600000000000000000000000004000066
:2002940000000000000000000000000000000000000000000000000000000000000000004a
:0e02b40000000000000000000000000000003c
:2002c20000000000000000000000000000000000000000000000000000000000000000001c
:0e02e20000000000000000000000000000000e
:2002f0000000000000000000000000000000000000000000000000000000000000000000ee
:0e0310000000000000000000000000000000df
:20031e000000000000000000000000000000000000000000000000000000000000000000bf
:0e033e000000000000000000000000000000b1
:20034c000101e0200c302800000000000000000000000000000000000000000004cef50064
:0e036c00000001800000000000000000000002
:20037a000100c0140c30000000000000000000000000000000000000000000002020f5001d
:0e039a00000010000000000000000000000045
:2003a800610000000c3028000000000000000000000000000000000000060024025ea5023f
:0e03c80018000000000000000000000000000f
:2003d600010003000c300000000000000000000000000000000000000008000401e00400d6
:0e03f600200090000000000000000000000049
:20040400000000360c302000000000000000000000000000000000000000000001ecd34244
:0e0424000000018974040000000000000000c8
:20043200000000240c300000000000000000000000000000000000000000000002d0c308ad
:0e0452000000000fa098000000000000000055
:200460000103600c0c3020000000000000000000000000000000000000000000606d89005a
:0e0480000000018bab89480000000000000066
:20048e00000360020c30000000000000000000000000000000000000000000002ede85001c
:0e04ae000000d005c148000000000000000062
:2004bc00000000040c302000000000000000000000000000000000000004002076fa814a61
:0e04dc000000000874c40000140000000000be
:2004ea00000002400c30000000000000000000000000000000000000000400047450d100d7
:0e050a000000000f60c80000080000000000a4
:20051800000000240c30200000000000000000000000000000000000000000160200a52066
:0e0538000000d081fbd4000000000000000095
:200546000000003c0c300000000000000000000000000000000000000000000000405a0083
:0e0566000000109043d40000000000000000d0
:20057400000000000c302000000000000000000000000000000000000000002007df4200c3
:0e05940000000005f2f4080000000000000066
:2005a200000000000c300000000000000000000000000000000000000000002c35eb8b0026
:0e05c2000000000142b4000000000000000034
:2005d000000000000c3020000000000000000000000000000000000000004004036ca74a0b
:0e05f0000000008df345080000000000000030
:2005fe00000002800c300000000000000000000000000000000000000000a01401e0030087
:0e061e000000000382842000000000000000a5
:20062c0001000000ac302400001a0000000000000000000000000000000000006968f510bd
:0e064c000000000000000000121026c0000098
:20065a00010003c10c3000000b100000000000000000000000000000000000147c30f500af
:0e067a000000000000000000084007f0100023
:200688000000000dcc302180000000000000000000000000000000000006001c0000000086
:0e06a8001c0080000000006002028ceb142099
:2006b600000000030c30820000000000000040800000000000000000000800403800000023
:0e06d60024001000000000800144000b100002
:2006e40001000000cc32240000000000000000000000000000000000000000006258f50024
:0e070400000080000000000000060000000061
:20071200000003010c30000000000000000000000000000000050000000000000260ff0021
:0e073200000070000000000002c00000000087
:20074000010000008c30200000010000000000000000000000000000000000003b5aa7423d
:0e0760000100000000000000000284af5600ff
:20076e00010000010c308000000800000000000000000000000000000000000039f0250156
:0e078e0000000000000000000004150500003f
:20079c0000000680ec3220000000000000000000000000000000000000000000007bcb0033
:0e07bc000000000f2a95c0000202800000001d
:2007ca00000006810c320000000000000000000000000000000000000000000400dcc300a7
:0e07ea000002000103e8010003c0000000004f
:2007f800000000400c322000000013d4c00000000000000000000000000000260248854a5d
:0e081800000000000000000000001d8f5200d4
:20082600000003c00c3000000000f2c0c000000000000000000000000000009400d0470096
:0e08460000001000000000000000020f500033
:20085400000000000c31200401005a29d0800a00000000000000000000001000017efa00bc
:0e08740000400000000000010266acf0200011
:20088200010002800c308000000b1c00c00000000000000000000000000010000020fa0006
:0e08a20000009000000000002144368000801d
:2008b000000000000c302000000000000000000000000000000000000000002000000000ac
:0e08d0003000000000000000000000000000ea
:2008de00000000000c308000500000000000000000000000010000000000001400000000d9
:0e08fe0010000000000000008000000000005c
:20090c0010e000000c3020002000331540020000000cf04000000000000000003800000061
:0e092c00000100000000000000001ea00200fc
:20093a00100000000c30000050000815400000000000f00000000000000000003c00000078
:0e095a00000200800000001003400400a00016
:20096800000000000c30200000000000000600000200a540000000000006000070000000b0
:0e098800180081e000000060006296e0200090
:20099600000000000c300000000000000008000001c05a00000000000008000000000000da
:0e09b6002000310000000080002415f5b00084
:2009c400040800000c3120030000003fc04c001e001cf04000000000000400000018f040a6
:0e09e400100000102bc1000002003dee252087
:2009f200021400000c3200000000003fc00c02020000f00000000000000400000010f0018d
:0e0a1200103000c043c000002240360a100021
:200a2000000000000c3020000000000000000000001ef0400000000000000000000000000c
:0e0a40000000001063c100000346000000002b
:200a4e00000000000c30000000000000000000000000f0000000000000000000000000005c
:0e0a6e00000000f003c0041000400000000073
:200a7c0000e0005c0c302000038a77154000001c381cf04100000000000001000008f0408f
:0e0a9c00000000006bc1000000001ea0500012
:200aaa00000002820c30000000800c15400000024010f0000000000000000e000010f0003b
:0e0aca000000000043c00000000000005000cb
:200ad8000014000c0c302000000e07f48000001c701ef0600000000000000000001ef040b1
:0e0af8000000000000000000020005d04200d7
:200b0600000800020c3000000000f378400000024010f00000800000000000000000f0002c
:0e0b26000000000000000000024014900010cb
:200b3400010000400c3020000000333480801000780cf040000000000002170000000000c0
:0e0b54000040000063c100010006ff9e50003b
:200b6200000002800c300000800a0834800000004010f0000000000000000f4000000000e0
:0e0b82000000000043c00000000234e1a000ab
:200b9000000000000c302000070000000000000e380af040000000000000001c0000000046
:0e0bb000000000807bc10000024036ec563091
:200bbe00000000000c30000000000000000000264000f00000000000000000000000000085
:0e0bde000000010043c000001240170cf08020
:200bec000000605eb5a0000000010000000000002818f0400000000000000000627cf50092
:0e0c0c0000000000000000000006268a000024
:200c1a000003c2dc85200000000a0000000000140010f00000000000000000006840ff00af
:0e0c3a00000000a0000000000006ff00008087
:200c480060020281882020000000732a80060080280af0400000000000060014004ef05230
:0e0c6800180000abf8200000000294c000202d
:200c7600800246fd041000000000042a800800400000f00000000000000800140260e40934
:0e0c9600200000a33c04000000002c0402001b
:200ca400c0020001cf0400000d00000000040014780af040000000000000000000000000c3
:0e0cc400000000a77a04080003c281af700090
:200cd200400240000f00100005800000000c00002810f001000000000000000000000000a7
:0e0cf2000000000d811c00000046f49fb000c1
:200d000000014047af00000008003bbc000000000000a540000000000000000000000000b8
:0e0d20000000019b6bdd880000000000000059
:200d2e000002627e0a5000000100f029400000002a405a000000000000000000000000004b
:0e0d4e00000050fdc2840000034000000000c1
:200d5c00000000018d202000001a37a1c0800000001af0610000000000000000027cff008f
:0e0d7c000000001873d40000000786900000ed
:200d8a00000003c50e100000000b0821c00000000010f00000000000000000000040f5003a
:0e0daa00000000a703e80000004017f800005a
:200db8000001c00eec3020000500f2bc000000000000000000000000000000160000000047
:0e0dd80000009809a7dc0000140014c00020e1
:200de6000001401d0d100000098b382940000000000000000000000000000000000000003d
:0e0e060000009009ebfc000008003608000414
:200e1400000162e5ac302000058f5aa8c0800000000000000000000000000006027c000020
:0e0e340000000018039c0800000000a2000847
:200e42000001c20d0e200000000d0028c000000000000000000000000000000000400a0053
:0e0e620000000093036c000000000ca10000d3
:200e70000000002405a028000000171e008000000040a54000000000000000000000000097
:0e0e90000000980578400800000304af5000f1
:200e9e000001c0160db000000d000c1e000000000000a500000000000000000000000000c4
:0e0ebe000000180f800044000004030f5000d5
:200ecc000000001c896c00000d8b1652842000066249a400000000000000000000000000fc
:0e0eec000000000000000000000000000000f8
:200efa000000000009602000051ffe0080000140025bd90000000000000000000000000036
:0e0f1a000000000000000000000000000000c9
:200f28006000001c896c0000080a16948006002067cc9142000000000006002000000000aa
:0e0f480000000000000000600000000000003b
:200f56008000000009600000090016b8000800043a50e301000000000008002c000000000d
:0e0f76000000000000000080000000000000ed
:200f8400c0000654896c044008000297c0040000325eba000000000000000000637aa100cd
:0e0fa40000000000000000c0000600e5540040
:200fb2004000020209600040090b942bc00c00003c4faa00000000000000000002dbd300ae
:0e0fd20000000000000000c00000350aa00072
:200fe00008006654896c04000d1816894000000067d8640000000000000000000158c5422f
:0e1000000000000000000000020000a0f4004c
:20100e000400020209600000099016838000000039e8990000000000000000142820c510b4
:0e102e00000000000000000000400100f00083
:20103c000000005e896c0000031e5b1540000000075cf0000000000000000000000000001d
:0e105c000000000000000000000016e054003c
:20106a000000028009600800009004154000000021f0a500000000000000000000000000d4
:0e108a0000000000000000000000350f5000c4
:2010980000000016896c000000007ea80000000063ce5a0200000000000004000000000076
:0e10b80000000000000000000000000000002a
:2010c6000000000009600000000073100000003441d0a10000000000000000002000000018
:0e10e6000000000000000000000000000000fc
:2010f40000026016896c0000001e7bbec08000062b7e8102000000000000000000000000a6
:0e11140000000000000000000003400000008a
:20112200000040020960000009199429421000004360f50000000000000000000000000039
:0e11420000000000000000000002000000009d
:20115000c002c0168966000005009bb3c020002e037c914300000000000000000000000044
:0e11700000000000000000c001c000000000f0
:20117e00c00040020960000009009679c800002c01e0d30100000000000000000000000025
:0e119e0000000000000000c000000000000083
:2011ac000000602598800003010033a800000000014896e0000000000000000000000000e8
:0e11cc00000000000000000000000000000015
:2011da00000000248220800000007c0000000000000096020000000000000000000000009b
:0e11fa000000000000000000000000000000e7
:2012080060034001ef0404000701bea80086002001c896c0000000000000000000000000f8
:0e1228000000000000000000000000000000b8
:201236008002c2800f000000008e30100008001c000096000000000000000000000000003d
:0e12560000000000000000000000000000008a
:20126400c0000005855000000180733942800020654896c0000000000000000000000000be
:0e12840000000000000000000000000000005c
:2012920040000000055080000080b03e8000003c2020960000000000000000000000000027
:0e12b20000000000000000000000000000002e
:2012c000000000000000000009800633c0c00086054896c0000000000000000000000000a3
:0e12e000000000000000000000000000000000
:2012ee00000000000000000009000433c0000000202096000000000000008000000000008a
:0e130e000000000000000000000000000000d1
:20131c000000004000000000051a16968080000001e896c000000000000000000000000067
:0e133c000000000000000000000000000000a3
:20134a00000003c000000000000a5017800000000000960000000000000000000000000039
:0e136a00000000000000000000000000000075
:2013780000000000000000028d817f2800000000016896c0000000000000000000000000df
:0e139800000000000000000000000000000047
:2013a6000000000000000000050a0c2800000000000096000000000000000000000000004e
:0e13c600000000000000000000000000000019
:2013d4000000000000000000058133a800000006016896c0000000000000000000000000d3
:0e13f4000000000000000000000000000000eb
:201402000000000000000000050a0c280000000000209600000000000000000000000000d1
:0e1422000000000000000000000000000000bc
:201430000001c00000000000001abba040a4002061e896c0000000000000000000000000c3
:0e14500000000000000000000000000000008e
:20145e00000020000000000000001020000400040020960000000000000000000000000060
:0e147e0000010000000000000000000000005f
:02148c0000005e
:03148e0072009059
:02149100110147
:02149300010155
:201495000000000000000000000000100000000000004000000000000100000000004000a6
:0e14b500000000000100000000000004000024
:2014c3000000000000000000000000200000000000008000000000000200000000008000e7
:0e14e3000000000002000000000000080000f1
:2014f1000000000000000000000000000000000000000000000000000000000000000000db
:0e1511000000000000000000000000000000cc
:20151f000000000000000000000000000000000000000000000000000000000000000000ac
:0e153f0000000000000000000000000000009e
:20154d0000000000000000000000000000000000000000000000000000000000000000007e
:0e156d00000000000000000000000000000070
:20157b00000000000000000000000000000000000000000000000000000000000000000050
:0e159b00000000000000000000000000000042
:2015a900000000000000000000000000000000000000000000000000000000000000000022
:0e15c900000000000000000000000000000014
:2015d7000000000000000000000000000000000000000000000000000000000000000000f4
:0e15f7000000000000000000000000000000e6
:201605000000000000000000000000000000000000000000000000000000000000000000c5
:0e1625000000000000000000000000000000b7
:20163300000000000000000000000000000000000000000000000000020000000000000095
:0e165300000000000000000000000000000089
:20166100000000000000000000000000000000000000000000000000000000000000000069
:0e16810000000000000000000000000000005b
:20168f0000000000000000000000000000000000000000000000000000000000000000003b
:0e16af0000000000000000000000000000002d
:2016bd0000000000000000000000000000000000000000000000000000000000000000000d
:0e16dd000000000000000000000000000000ff
:2016eb000000000000000000000000000000000000000000000000000000000000000000df
:0e170b000000000000000000000000000000d0
:201719000000000000000000000000000000000000000000000000000200000000000000ae
:0e1739000000000000000000000000000000a2
:20174700000000000000000000000000000000000000000000000000000000000000000082
:0e176700000000000000000000000000000074
:201775000000002c0c300000000000000000000000000000000000000000000000000000ec
:0e179500000000000000000000000000000046
:2017a300000000200c302000000000000000000000000000000000000000000000000000aa
:0e17c300000000000000000000000000000018
:2017d1000000001c0c300000000000000000000000000000000000000000000000000000a0
:0e17f1000000000000000000000000000000ea
:2017ff000000c0000c302000000000000000000000000000000000000000000000000000ae
:0e181f000000000000000000000000000000bb
:20182d000000002c0c30000000000000000000000000000000000000000000000000000033
:0e184d0000000000000000000000000000008d
:20185b00000002000c3020000000000000000000000000000000000000000000000000000f
:0e187b0000000000000000000000000000005f
:20188900000004000c300000000000000000000000000000000000000000000000000000ff
:0e18a900000000000000000000000000000031
:2018b700000006800c3020000000000000000000000000000000000000000000000000002f
:0e18d700000000000000000000000000000003
:2018e500000000000c300000000000000000000000000000000000000000000000000000a7
:0e1905000000000000000000000000000000d4
:20191300000010000c30200000000000000000000000000000000000000000000000000048
:0e1933000000000000000000000000000000a6
:20194100000000000c3000000000000000000000000000000000000000000000000000004a
:0e196100000000000000000000000000000078
:20196f00000000000c302000000000000000000000000000000000000000000000000000fc
:0e198f0000000000000000000000000000004a
:20199d00000000000c300000000000000000000000000000000000000000000000000000ee
:0e19bd0000000000000000000000000000001c
:2019cb00000000000c30200000400000000000000000000000000000000000000000000060
:0e19eb000000000000000000000000000000ee
:2019f900000000000c30000000000000000000000000000000000000000000000000000092
:0e1a19000000000000000000000000000000bf
:201a2700000000000c30200000000000000000000000000000000000000000000000000043
:0e1a4700000000000000000000000000000091
:201a5500000000000c30000000000000000000000000000000000000000000000000000035
:0e1a7500000000000000000000000000000063
:201a8300000000000c302000000000000000000000000000000000000000000000000000e7
:0e1aa300000000000000000000000000000035
:201ab100000000000c300000000000000000000000000000000000000000000000000000d9
:0e1ad100000000000000000000000000000007
:201adf00000000000c3020000000000000000000000000000000000000000000000000008b
:0e1aff000000000000000000000000000000d9
:201b0d00000000000c3000000000000000000000000000000000000000000000000000007c
:0e1b2d000000000000000000000000000000aa
:201b3b00000000000c3020000000000000000000000000000000000000000000000000002e
:0e1b5b0000000000000000000000000000007c
:201b6900000000000c30000000000000000000000000000000000000000000000000000020
:0e1b890000000000000000000000000000004e
:201b9700000000000c302000000000000000000000000000000000000000000000000000d2
:0e1bb700000000000000000000000000000020
:201bc500000000000c300000000000000000000000000000000000000000000000000000c4
:0e1be5000000000000000000000000000000f2
:201bf300000000000c30200000000000000000000000000000000000000000000000000076
:0e1c13000000000000000000000000000000c3
:201c2100000000000c30000000000000000000000000000000000000000000000000000067
:0e1c4100000000000000000000000000000095
:201c4f00000000000c30200000000000000000000000000000000000000000000000000019
:0e1c6f00000000000000000000000000000067
:201c7d00000000000c3000000000000000000000000000000000000000000000000000000b
:0e1c9d00000000000000000000000000000039
:201cab00000000000c302000000000000000000000000000000000000000000000000000bd
:0e1ccb0000000000000000000000000000000b
:201cd900000000000c300000000000000000000000000000000000000000000000000000af
:0e1cf9000000000000000000000000000000dd
:201d0700000000000c30200000000000000000000000000000000000000000000000000060
:0e1d27000000000000000000000000000000ae
:201d3500000000000c30000000000000000000000000000000000000000000000000000052
:0e1d5500000000000000000000000000000080
:201d6300000000000c30200000000000000000000000000000000000000000000000000004
:0e1d8300000000000000000000000000000052
:201d9100000000000c300000000000000000000000000000000000000000000000000000f6
:0e1db100000000000000000000000000000024
:201dbf00000000000c302000000000000000000000000000000000000000000000000000a8
:0e1ddf000000000000000000000000000000f6
:201ded00000000000c3000000000000000000000000000000000000000000000000000009a
:0e1e0d000000000000000000000000000000c7
:201e1b00000000000c3020000000000000000000000000000000000000000000000000004b
:0e1e3b00000000000000000000000000000099
:201e4900000000000c3000000000000000000000000000000000000000000000000000003d
:0e1e690000000000000000000000000000006b
:201e7700000000000c302000000000000000000000000000000000000000000000000000ef
:0e1e970000000000000000000000000000003d
:201ea500000000000c300000000000000000000000000000000000000000000000000000e1
:0e1ec50000000000000000000000000000000f
:201ed300000000000c30200000000000000000000000000000000000000000000000000093
:0e1ef3000000000000000000000000000000e1
:201f0100000000000c30000000000000000000000000000000000000000000000000000084
:0e1f21000000000000000000000000000000b2
:201f2f00000000000c30200000000000000000000000000000000000000000000000000036
:0e1f4f00000000000000000000000000000084
:201f5d00000000000c30000000000000000000000000000000000000000000000000000028
:0e1f7d00000000000000000000000000000056
:201f8b00000000000c302000000000000000000000000000000000000000000000000000da
:0e1fab00000000000000000000000000000028
:201fb900000000000c300000000000000000000000000000000000000000000000000000cc
:0e1fd9000000000000000000000000000000fa
:201fe700000000000c3020000000000000000000000000000000000000000000000000007e
:0e2007000000000000000000000000000000cb
:202015000000000000000000000000000000000000000000000000000000000000000000ab
:0e20350000000000000000000000000000009d
:2020430000000000000000000000000000000000000000000000000000000000000000007d
:0e20630000000000000000000000000000006f
:2020710000000000000000000000000000000000000000000000000000000000000000004f
:0e209100000000000000000000000000000041
:20209f00000000000000000000000000000000000000000000000000000000000000000021
:0e20bf00000000000000000000000000000013
:2020cd000000000000000000000000000000000000000000000000000000000000000000f3
:0e20ed000000000000000000000000000000e5
:2020fb000000000000000000000000000000000000000000000000000000000000000000c5
:0e211b000000000000000000000000000000b6
:20212900000000000000000000000000000000000000000000000000000000000000000096
:0e214900000000000000000000000000000088
:20215700000000000000000000000000000000000000000000000000000000000000000068
:0e21770000000000000000000000000000005a
:2021850000a00000000000000000000000000000000000000000000000000000000000009a
:0e21a50000000000000000000000000000002c
:2021b30000000000000000000000000000000000000000000000000000000000000000000c
:0e21d3000000000000000000000000000000fe
:2021e1000000000000000000000000000000000000000000000000000000000000000000de
:0e2201000000000000000000000000000000cf
:20220f000000000000000000000000000000000000000000000000000000000000000000af
:0e222f000000000000000000000000000000a1
:20223d00000000000000000000000000000000000000000000000000000000000000000081
:0e225d00000000000000000000000000000073
:20226b00000000000000000000000000000000000000000000000000000000000000000053
:0e228b00000000000000000000000000000045
:20229900000000000000000000000000000000000000000000000000000000000000000025
:0e22b900000000000000000000000000000017
:2022c7000000000000000000000000000000000000000000000000000000000000000000f7
:0e22e7000000000000000000000000000000e9
:2022f5000000000000000000000000000000000000000000000000000000000000000000c9
:0e2315000000000000000000000000000000ba
:2023230000000000000000000000000000000000000000000000000000000000000000009a
:0e23430000000000000000000000000000008c
:2023510000000000000000000000000000000000000000000000000000000000000000006c
:0e23710000000000000000000000000000005e
:20237f00010000000000000400000000000010000000000000000000000000000000000029
:0e239f00000000000000000000000000000030
:2023ad00000000000000000000000000000000000000000000000000000000000000000010
:0e23cd00000000000000000000000000000002
:2023db000000000000000000000000000000000000000000000000000000000000000000e2
:0e23fb000000000000000000000000000000d4
:202409000000000000000000000000000000000000000000000000000000000000000000b3
:0e2429000000000000000000000000000000a5
:20243700000000000000000000000000000000000000000000000000000000000000000085
:0e245700000000000000000000000000000077
:20246500000000000000000000000000000000000000000000000000000000000000000057
:0e248500000000000000000000000000000049
:20249300000000000000000000000000000000000000000000000000000000000000000029
:0e24b30000000000000000000000000000001b
:2024c1000000000000000000000000000000000000000000000000000000000000000000fb
:0e24e1000000000000000000000000000000ed
:2024ef000000000000000000000000000000000000000000000000000000000000000000cd
:0e250f000000000000000000000000000000be
:20251d0000000000000000000000000000000000000000000000000000000000000000009e
:0e253d00000000000000000000000000000090
:20254b00000000000000000000000000000000000000000000000000000000000000000070
:0e256b00000000000000000000000000000062
:20257900000010000000000000000000000000000000000000000000000000000000000032
:0e259900000000000000000000000000000034
:2025a700000000000000000000000000000000000000000000000000000000000000000014
:0e25c700000000000000000000000000000006
:2025d5000000000000000000000000000000000000000000000000000000000000000000e6
:0e25f5000000000000000000000000000000d8
:202603000000000000000000000000000000000000000000000000000000000000000000b7
:0e2623000000000000000000000000000000a9
:20263100000000000000000000000000000000000000000000000000000000000000000089
:0e26510000000000000000000000000000007b
:20265f0000000000000000000000000000000000000000000000000000000000000000005b
:0e267f0000000000000000000000000000004d
:20268d0000000000000000000000000000000000000000000000000000000000000000002d
:0e26ad0000000000000000000000000000001f
:2026bb000000000000000000000000000000000000000000000000000000000000000000ff
:0e26db000000000000000000000000000000f1
:2026e9000000000000000000000000000000000000000000000000000000000000000000d1
:0e2709000000000000000000000000000000c2
:202717000000000000000000000000000000000000000000000000000000000000000000a2
:0e273700000000000000000000000000000094
:20274500000000000000000000000000000000000000000000000000000000000000000074
:0e276500000000000000000000000000000066
:20277300100000000000000000000000000000000000000000000000000000000000000036
:0e279300000000000000000000000000000038
:2027a100000000000000000000000000000000000000000000000000000000000000000018
:0e27c10000000000000000000000000000000a
:2027cf000000000000000000000000000000000000000000000000000000000000000000ea
:0e27ef000000000000000000000000000000dc
:2027fd000000000000000000000000000000000000000000000000000000000000000000bc
:0e281d000000000000000000000000000000ad
:20282b0000000000000000000000000000000000000000000000000000000000000000008d
:0e284b0000000000000000000000000000007f
:2028590000000000000000000040000000000000000000000000000000000000000000001f
:0e287900000000000000000000000000000051
:20288700000000000000000000000000000000000000000000000000000000000000000031
:0e28a700000000000000000000000000000023
:2028b500000000000000000000000000000000000000000000000000000000000000000003
:0e28d5000000000000000000000000000000f5
:2028e3000000000000000000000000000000000000000000000000000000000000000000d5
:0e2903000000000000000000000000000000c6
:202911000000000000000000000000000000000000000000000000000000000000000000a6
:0e293100000000000000000000000000000098
:20293f000000000000000000000c000000000000000000000000000000000000000000006c
:0e295f0000000000000000000000000000006a
:20296d0000000000000000000000000000000000000000000000000000000000000000004a
:0e298d0000000000000000000000000000003c
:20299b0000000000000000000000000000000000000000000000000000000000000000001c
:0e29bb0000000000000000000000000000000e
:2029c9000000000000000000000000000000000000000000000000000000000000000000ee
:0e29e9000000000000000000000000000000e0
:2029f7000000000000000000000000000000000000000000000000000000000000000000c0
:0e2a17000000000000000000000000000000b1
:202a2500000000000000000000000000000000000000000000000000000000000000000091
:0e2a4500000000000000000000000000000083
:202a5300000000000000000000000000000000000000000000000000000000000000000063
:0e2a7300000000000000000000000000000055
:202a8100000000000000030001000000000000000000000000000000000000000000000031
:0e2aa100000000000000000000000000000027
:202aaf000000000000000300080000000000000000000000000000000000000000000000fc
:0e2acf000000000000000000000000000000f9
:202add000000000000000200000000000000000000000000000000000000000000000000d7
:0e2afd000000000000000000000000000000cb
:202b0b00000000000000018000000000000000000000000000000000000000000000000029
:0e2b2b0000000000000000000000000000009c
:202b3900000000000000000000000003c02000000000000000000000000000000000000099
:0e2b590000000000000000000000000000006e
:202b6700000000000000000000000283d000000000000000000000000000000000000000f9
:0e2b8700000000000000000000000000000040
:202b9500400000000000000000180000000c0040000000000000000000000000000000007c
:0e2bb500000000000000000000000000000012
:202bc300c000000000000000001e000000040400000000000000000000000000000000000c
:0e2be3000000000000000000000000000000e4
:202bf10000014000000000000000000000000004200000000000000000000000000000005f
:0e2c11000000000000000000000000000000b5
:202c1f00000007000000000000000000000000260400000000000000000000000000000064
:0e2c3f00000000000000000000000000000087
:202c4d00000240000000000000000000000000000000000000000000000000000000000025
:0e2c6d00000000000000000000000000000059
:202c7b00000000000000000000000000000000000000000000000000000000000000000039
:0e2c9b0000000000000000000000000000002b
:202ca9000001438000000000000c000000000000000000000000000000000000000000003b
:0e2cc9000000000000000000000000000000fd
:202cd700000007c00000000000000000000000000000000000000000000000000000000016
:0e2cf7000000000000000000000000000000cf
:202d05000000002e05f000000000000000000000000000000000000000000000000000008b
:0e2d25000000000000000000000000000000a0
:202d33000000000cc0040800000000000000001c000000000000000000000000000000008c
:0e2d5300000000000000000000000000000072
:202d6100c0000000000001000000fe02800000000020960800000000000000000000000053
:0e2d8100000000000000000000000000000044
:202d8f00c0000000000003000000fa011020000001c8964000000000000000000000000097
:0e2daf00000000000000000000000000000016
:202dbd008000000000000200000000000008000000009608000000000000000000000000ce
:0e2ddd000000000000000000000000000000e8
:202deb006000000000000180000000000006000001c896c0000000000000000000000000c2
:0e2e0b000000000000000000000000000000b9
:202e190000000001d54000000d000000000000000000960c000000000000000000000000d4
:0e2e3900000000000000000000000000000289
:202e47000000001cc5440800000a00000000000001c896c000000000000000000000000015
:0e2e670000000000000000000000000000005d
:022e750000005b
:032e770072007076
:022e7a00110243
:022e7c00010152
:202e7e00000000000000000002000000000000080000000002000000000000080000000020
:0e2e9e00000020000000000000800000000086
:202eac000000000000000000010000000000000400000000010000000000000400000000fc
:0e2ecc000000100000000000004000000000a8
:202eda000000000000000000000000000000000000000000000000000000000000000000d8
:0e2efa000000000000000000000000000000ca
:202f08000000000000000000000000000000000000000000000000000000000000000000a9
:0e2f280000000000000000000000000000009b
:202f360000000000000000000000000000000000000000000000000000000000000000007b
:0e2f560000000000000000000000000000006d
:202f640000000000000000000000000000000000000000000000000000000000000000004d
:0e2f840000000000000000000000000000003f
:202f920000000000000000000000000000000000000000000000000000000000000000001f
:0e2fb200000000000000000000000000000011
:202fc0000000000000000000000000000000000000000000000000000000000000000000f1
:0e2fe0000000000000000000000000000000e3
:202fee000000000000000000000000000000000000000000000000000000000000000000c3
:0e300e000000000000000000000000000000b4
:20301c00000000000000000000000000000000000000000000000000000000000000000094
:0e303c00000000000000000000000000000086
:20304a00000000000000000000000000000000000000000000000000000000000000000066
:0e306a00000000000000000000000000000058
:20307800000000000000000000000000000000000000000000000000000000000000000038
:0e30980000000000000000000000000000002a
:2030a60000000000000000000000000000000000000000000000000000000000000000000a
:0e30c6000000000000000000000000000000fc
:2030d4000000000000000000000000000000000000000000000000000000000000000000dc
:0e30f4000000000000000000000000000000ce
:203102000000000000000000000000000000000000000000000000000000000000000000ad
:0e31220000000000000000000000000000009f
:2031300000000000000000000000000000000000000000000000000000000000000000007f
:0e315000000000000000000000000000000071
:20315e001030c000000200000000000000000000000000000000000000000000000000004f
:0e317e00000000000000000000000000000043
:20318c000030c0000000000000000000000000000000000000000000000000000000000033
:0e31ac00000000000000000000000000000015
:2031ba001030c0000000000000000000000000000000000000000000008000000000000075
:0e31da000000000000000000000000000000e7
:2031e8000030c00000000000000000000000000000000000000000000000000000000000d7
:0e3208000000000000000000000000000000b8
:203216001030c0000000000000000000000000000000000000000000000000000000000098
:0e32360000000000000000000000000000008a
:203244000030c000000000000000000000000000000000000000000000000000000000007a
:0e32640000000000000000000000000000005c
:203272001030c000000000000000000000000000000000000000000000000000000000003c
:0e32920000000000000000000000000000002e
:2032a0000030c000000000000000000000000000000000000000000000000000000000001e
:0e32c000000000000000000000000000000000
:2032ce001030c00000000000000000000000000000000000000000000000000000000000e0
:0e32ee000000000000000000000000000000d2
:2032fc000030c00000000000000000000000000000000000000000000000000000000000c2
:0e331c000000000000000000000000000000a3
:20332a001030c0000000000000000000000000000000000000000000000000000000000083
:0e334a00000000000000000000000000000075
:203358000030c0000000000000000000000000000000000000000000000000000000000065
:0e337800000000000000000000000000000047
:203386001030c0000000000000000000000000000000000000000000000000000000000027
:0e33a600000000000000000000000000000019
:2033b4000030c0000000000000000000000000000000000000000000000000000000000009
:0e33d4000000000000000000000000000000eb
:2033e2001030c00000000000000000000000000000000000000000000000000000000000cb
:0e3402000000000000000000000000000000bc
:203410000030c00000000000000000000000000000000000000000000000000000000000ac
:0e34300000000000000000000000000000008e
:20343e001030c1c000000000000000000000000000000000000000000000000000000000ad
:0e345e000000000000000003b89e8d0000007a
:20346c000030c100000000000000000000000000000000000000000000000000000000004f
:0e348c00000000000000002217e7c18b0000c6
:20349a001030c0000000000000000000000000000000000000000000000000000000000012
:0e34ba0000000000000000002040000000188c
:2034c8000030c00000000000000000000000000000000000000000000000000000000000f4
:0e34e80000000000000000001094d00000045e
:2034f6001030c00000000000000000000000000000000000000000000000000000000000b6
:0e35160000000000000000000296101a0000e5
:203524000030c0000000000000000000000000000000000000000000000000000000000097
:0e35440000000000000000000140f00e00003a
:203552001030c0000000000000000000000000000000000000000000000000000000000059
:0e35720000000000000000003d56818b20008c
:203580000030c000000000000000000000000000000000000000000000000000000000003b
:0e35a00000000000000000003d40001b000085
:2035ae001030c00000000000000000000000000000000000000000000000000000000000fd
:0e35ce0000000000000000100304c781000090
:2035dc000030c00000000000000000000000000000000000000000000000000000000000df
:0e35fc0000000000000000002b03c0080000cb
:20360a001030c005800000000000000000000000000000000000000000000000000000001b
:0e362a0000000000000000102157e00000002a
:203638000030c0008000000000000000000000000000000000000000000000000000000002
:0e36580000000000000000001683a00000002b
:203666001030c0000000000000000000000000000000000000000000000000000000000044
:0e3686000000000000000010301600000200de
:203694000030c0000000000000000000000000000000000000000000000000000000000026
:0e36b4000000000000000000300000000000d8
:2036c2001030c00000000000000000000000000000000000000000000000000000000000e8
:0e36e2000000000000000000014cad000000e0
:2036f0000030c00000000000000000000000000000000000000000000000000000000000ca
:0e371000000000000000000003c091800000d7
:20371e001030c000000000000000000000000000000000000000000000000000000000008b
:0e373e0000000000000000008175e000400067
:20374c000030c000000000000000000000000000000000000000000000000000000000006d
:0e376c0000000000000000001e94cf0a800044
:20377a001030c00000000000000000000000000000000000000000000080000000000000af
:0e379a000000000000000000168dad80001839
:2037a8000030c0000000000000000000000000000000000000000000000000000000000011
:0e37c80000000000000000000140af000004ff
:2037d6001030c00000000000000000000000000000000000000000000000000000000000d3
:0e37f60000000000000000103fc6e00aa00026
:203804000030c00000000000000000000000000000000000000000000000000000000000b4
:0e382400000000000000000029c2900a4000d1
:203832001030c0000000000000000000000000000000000000000000000000000000000076
:0e385200000000000000001180c7a1980000d7
:203860000030c0000000000000000000000000000000000000000000000000000000000058
:0e388000000000000000000228c3e00000006d
:20388e001030c000000000000000000000000000000000000000000000000000000000001a
:0e38ae000000000000000000000000190000f3
:2038bc000030c00000000000000000000000000000000000000000000000000000000000fc
:0e38dc000000000000000000000000180000c6
:2038ea001030c00000000000000000000000000000000000000000000000000000000000be
:0e390a000000000000000000800db00e0080e4
:203918000030c000000000000000000000000000000000000000000000000000000000009f
:0e39380000000000000000002bc0c0100100c5
:203946001030c0000000000000000000000000000000000000000000000000000000000061
:0e3966000000000000000000014d8000020083
:203974000030c0000000000000000000000000000000000000000000000000000000000043
:0e39940000000000000000001681900e0000f0
:2039a2001030c0000000000000000000000000000000000000000000000000000000000005
:0e39c200000000000000001036d4900000004d
:2039d0000030c00000000000000000000000000000000000000000000000000000000000e7
:0e39f000000000000000000022c0900b00004c
:2039fe000000000000000000000000000000000000000000000000000000000000000000a9
:0e3a1e0000000000000000000000000000009a
:203a2c0000000000000000000000000000000000000000000000000000000000000000007a
:0e3a4c0000000000000000000000000000006c
:203d0c00000000000000200000000000000000000000000000000000000000000000000077
:0e3d2c00000000000000000000000000000089
:203d3a00000000000000000000000000000000000000000000000000000000000000000069
:0e3d5a0000000000000000000000000000005b
:203d680000000000000000000000000000000000000000000000000000000000000000003b
:02429e0000001e
:0342a00072009019
:0242a300110305
:0242a500010115
:2042a7000000000000000000020000000000000800000000000000100200000800000000d3
:0e42c700000020000000000000800000000049
:2042d5000000000000000000010000000000000400000000010000a000000004000000001f
:0e42f50000001000000000000040000000006b
:20430300000000000000000000000000000000000000000000000000020000000000000098
:0e43230000000000000000000000000000008c
:2043310000000000000000000000000000000000000000000200000000000000000000006a
:0e43510000000000000000000000000000005e
:20435f00000000000000000000000000000000000000000000d0000001000000000000006d
:0e437f00000000000000000000000000000030
:20438d00000000000000000000000000000000000000000000e00000000000000000000030
:0e43ad00000000000000000000000000000002
:2043bb00000000000000000000000000000000000000000000008000000000000000000062
:0e43db000000000000000000000000000000d4
:2043e9000000000000000000000000000000000000000000000000000100000000000000b3
:0e4409000000000000000000000000000000a5
:2044170000000000000000000000000000000000000000000200c0000000000000000000c3
:0e443700000000000000000000000000000077
:20444500000000000000000000000000000000000000000000000000000000000000000057
:0e446500000000000000000000400000000009
:204473000000000000000000000000000000000000000000000000a0000000000000000089
:0e44930000000000000000000000000000001b
:2044a1000000000000000000000000000000000000000000000000100000000000000000eb
:0e44c1000000000000000000000000000000ed
:2044cf000000000000000000000000000000000000000000000000000000000000000000cd
:0e44ef000000000000000000000000000000bf
:2044fd0000000000000000000000000000000000000000000000000002000000000000009d
:0e451d00000000000000000000000000000090
:20452b000000000000000000000000000000000000000000000080000200000000000000ee
:0e454b00000000000000000000400000000022
:20455900000000000000000000000000000000000000000000000000000000000000000042
:0e457900000000000000000000000000000034
:204587000030c0000000000000000000000000000000000000000000000000000000000024
:0e45a700000000000000000000000000000006
:2045b5001030c00000000000000000000000000000000000000000000000000000000000e6
:0e45d5000000000000000000000000000000d8
:2045e3000030c00000000000000000000000000000000000000000000000000000000000c8
:0e4603000000000000000000000000000000a9
:204611001030c0000000000000000000000000000000000000000000000000000000000089
:0e46310000000000000000000000000000007b
:20463f000030c000000000000000000000000000000000000000000000000000000000006b
:0e465f0000000000000000000000000000004d
:20466d001030c000000000000000000000000000000000000000000000000000000000002d
:0e468d0000000000000000000000000000001f
:20469b000030c000000000000000000000000000000000000000000000000000000000000f
:0e46bb000000000000000000000000000000f1
:2046c9001030c00000000000000000000000000000000000000000000000000000000000d1
:0e46e9000000000000000000000000000000c3
:2046f7000030c00000000000000000000000000000000000000000000000000000000000b3
:0e471700000000000000000000000000000094
:204725001030c0000000000000000000000000000000000000000000000000000000000074
:0e474500000000000000000000000000000066
:204753000030c0000000000000000000000000000000000000000000000000000000000056
:0e477300000000000000000000000000000038
:204781001030c0000000000000000000000000000000000000000000000000000000000018
:0e47a10000000000000000000000000000000a
:2047af000030c00000000000000000000000000000000000000000000000000000000000fa
:0e47cf000000000000000000000000000000dc
:2047dd001030c00000000000000000000000000000000000000000000000000000000000bc
:0e47fd000000000000000000000000000000ae
:20480b000030c000000000000000000000000000000000000000000000000000000000009d
:0e482b0000000000000000000000000000007f
:204839001030c000000000000000000000000000000000000000000000000000000000005f
:0e485900000000000000000000000000000051
:204867000030c0000000000000000000000000000000000000000000000000000000000041
:0e488700000000000000000000000000000023
:204895001030c0000000000000000000000000000000000000000000000000000000000003
:0e48b5000000000000000000000000000000f5
:2048c3000030c00000000000000000000000000000000000000000000000000000000000e5
:0e48e3000000000000000000000000000000c7
:2048f1001030c00000000000000000000000000000000000000000000000000000000000a7
:0e491100000000000000000000000000000098
:20491f000030c0000000000000000000000000000000000000000000000000000000000088
:0e493f0000000000000000000000000000006a
:20494d001030c000000000000000000000000000000000000000000000000000000000004a
:0e496d0000000000000000000000000000003c
:20497b000030c000000000000000000000000000000000000000000000000000000000002c
:0e499b0000000000000000000000000000000e
:2049a9001030c00000000000000000000000000000000000000000000000000000000000ee
:0e49c9000000000000000000000000000000e0
:2049d7000030c00000000000000000000000000000000000000000000000000000000000d0
:0e49f7000000000000000000000000000000b2
:204a05001030c0000000000000000000000000000000000000000000000000000000000091
:0e4a2500000000000000000000000000000083
:204a33000030c0000000000000000000000000000000000000000000000000000000000073
:0e4a5300000000000000000000000000000055
:204a61001030c0000000000000000000000000000000000000000000000000000000000035
:0e4a8100000000000000000000000000000027
:204a8f000030c0000000000000000000000000000000000000000000000000000000000017
:0e4aaf000000000000000000000000000000f9
:204abd001030c00000000000000000000000000000000000000000000000000000000000d9
:0e4add000000000000000000000000000000cb
:204aeb000030c00000000000000000000000000000000000000000000000000000000000bb
:0e4b0b0000000000000000000000000000009c
:204b19001030c00000000000000000000000000000000000000000000080000000000000fc
:0e4b390000000000000000000000000000006e
:204b47000030c000000000000000000000000000000000000000000000000000000000005e
:0e4b6700000000000000000000000000000040
:204b75001030c0000000000000000000000000000000000000000000000000000000000020
:0e4b9500000000000000000000000000000012
:204ba3000030c0000000000000000000000000000000000000000000000000000000000002
:0e4bc3000000000000000000000000000000e4
:204bd1001030c00000000000000000000000000000000000000000000000000000000000c4
:0e4bf1000000000000000000000000000000b6
:204bff000030c00000000000000000000000000000000000000000000000000000000000a6
:0e4c1f00000000000000000000000000000087
:204c2d001030c0000000000000000000000000000000000000000000000000000000000067
:0e4c4d00000000000000000000000000000059
:204c5b000030c0000000000000000000000000000000000000000000000000000000000049
:0e4c7b0000000000000000000000000000002b
:204c89001030c000000000000000000000000000000000000000000000000000000000000b
:0e4ca9000000000000000000000000000000fd
:204cb7000030c00000000000000000000000000000000000000000000000000000000000ed
:0e4cd7000000000000000000000000000000cf
:204ce5001030c00000000000000000000000000000000000000000000000000000000000af
:0e4d05000000000000000000000000000000a0
:204d13000030c0000000000000000000000000000000000000000000000000000000000090
:0e4d3300000000000000000000000000000072
:204d41001030c0000000000000000000000000000000000000000000000000000000000052
:0e4d6100000000000000000000000000000044
:204d6f000030c0000000000000000000000000000000000000000000000000000000000034
:0e4d8f00000000000000000000000000000016
:204d9d001030c00000000000000000000000000000000000000000000000000000000000f6
:0e4dbd000000000000000000000000000000e8
:204dcb000030c00000000000000000000000000000000000000000000000000000000000d8
:0e4deb000000000000000000000000000000ba
:204df9001030c000000000000000000000000000000000000000000000000000000000009a
:0e4e190000000000000000000000000000008b
:204e270000000000000000000000000000000000000000000000000000000000000000006b
:0e4e470000000000000000000000000000005d
:204e550000000000000000000000000000000000000000000000000000000000000000003d
:025c870000001b
:035c890072008026
:025c8c00110005
:035c8e0062002f82
:035c91008200008e
:025c940001030a
:065c960000000000000008
:065c9c0000000000000002
:065ca200000000000000fc
:065ca800000000000000f6
:065cae00000000000000f0
:065cb400000000000000ea
:065cba00000000000000e4
:065cc000000000000000de
:065cc600000000000000d8
:065ccc00000000000000d2
:065cd200000000000000cc
:065cd800000000000000c6
:065cde00000000000000c0
:065ce400000000000000ba
:065cea00000000000000b4
:065cf000000000000000ae
:065cf600000000000000a8
:065cfc00000000000000a2
:065d02000000000000009b
:065d080000000000000095
:065d0e000000000000008f
:065d140000000000000089
:065d1a0000000000000083
:065d20000000000000007d
:065d260000000000000077
:065d2c0000000000000071
:065d32000000000000006b
:065d380000000000000065
:065d3e000000000000005f
:065d440000000000000059
:065d4a0000000000000053
:065d50000000000000004d
:065d560000000000000047
:065d5c0000000000000041
:065d62000000000000003b
:065d680000000000000035
:065d6e000000000000002f
:065d740000000000000029
:065d7a0000000000000023
:065d80000000000000001d
:065d860000000000000017
:065d8c0000000000000011
:065d92000000000000000b
:065d980000000000000005
:065d9e00000000000000ff
:065da400000000000000f9
:065daa00000000000000f3
:065db000000000000000ed
:065db600000000000000e7
:065dbc00000000000000e1
:065dc200000000000000db
:065dc800000000000000d5
:065dce00000000000000cf
:065dd400000000000000c9
:065dda00000000000000c3
:065de000000000000000bd
:065de600000000000000b7
:065dec00000000000000b1
:065df200000000000000ab
:065df800000000000000a5
:065dfe000000000000009f
:065e040000000000000098
:065e0a0000000000000092
:065e10000000000000008c
:065e160000000000000086
:065e1c0000000000000080
:065e22000000000000007a
:065e280000000000000074
:065e2e000000000000006e
:065e340000000000000068
:065e3a0000000000000062
:065e40000000000000005c
:065e460000000000000056
:065e4c0000000000000050
:065e52000000000000004a
:065e580000000000000044
:065e5e000000000000003e
:065e640000000000000038
:065e6a0000000000000032
:065e70000000000000002c
:065e760000000000000026
:065e7c0000000000000020
:065e82000000000000001a
:065e880000000000000014
:065e8e000000000000000e
:065e940000000000000008
:065e9a0000000000000002
:065ea000000000000000fc
:065ea600000000000000f6
:065eac00000000000000f0
:065eb200000000000000ea
:065eb800000000000000e4
:065ebe00000000000000de
:065ec400000000000000d8
:065eca00000000000000d2
:065ed000000000000000cc
:065ed600000000000000c6
:065edc00000000000000c0
:065ee200000000000000ba
:065ee800000000000000b4
:065eee00000000000000ae
:065ef400000000000000a8
:065efa00000000000000a2
:065f00000000000000009b
:065f060000000000000095
:065f0c000000000000008f
:065f120000000000000089
:065f180000000000000083
:065f1e000000000000007d
:065f240000000000000077
:065f2a0000000000000071
:065f30000000000000006b
:065f360000000000000065
:065f3c000000000000005f
:065f420000000000000059
:065f480000000000000053
:065f4e000000000000004d
:065f540000000000000047
:065f5a0000000000000041
:065f60000000000000003b
:065f660000000000000035
:065f6c000000000000002f
:065f720000000000000029
:065f780000000000000023
:065f7e000000000000001d
:065f840000000000000017
:065f8a0000000000000011
:065f90000000000000000b
:025f9600000009
:035f980082008004
:025f9b00010300
:065f9d00000000000000fe
:065fa300000000000000f8
:065fa900000000000000f2
:065faf00000000000000ec
:065fb500000000000000e6
:065fbb00000000000000e0
:065fc100000000000000da
:065fc700000000000000d4
:065fcd00000000000000ce
:065fd300000000000000c8
:065fd900000000000000c2
:065fdf00000000000000bc
:065fe500000000000000b6
:065feb00000000000000b0
:065ff100000000000000aa
:065ff700000000000000a4
:065ffd000000000000009e
:0660030000000000000097
:0660090000000000000091
:06600f000000000000008b
:0660150000000000000085
:06601b000000000000007f
:0660210000000000000079
:0660270000000000000073
:06602d000000000000006d
:0660330000000000000067
:0660390000000000000061
:06603f000000000000005b
:0660450000000000000055
:06604b000000000000004f
:0660510000000000000049
:0660570000000000000043
:06605d000000000000003d
:0660630000000000000037
:0660690000000000000031
:06606f000000000000002b
:0660750000000000000025
:06607b000000000000001f
:0660810000000000000019
:0660870000000000000013
:06608d000000000000000d
:0660930000000000000007
:0660990000000000000001
:06609f00000000000000fb
:0660a500000000000000f5
:0660ab00000000000000ef
:0660b100000000000000e9
:0660b700000000000000e3
:0660bd00000000000000dd
:0660c300000000000000d7
:0660c900000000000000d1
:0660cf00000000000000cb
:0660d500000000000000c5
:0660db00000000000000bf
:0660e100000000000000b9
:0660e700000000000000b3
:0660ed00000000000000ad
:0660f300000000000000a7
:0660f900000000000000a1
:0660ff000000000000009b
:0661050000000000000094
:06610b000000000000008e
:0661110000000000000088
:0661170000000000000082
:06611d000000000000007c
:0661230000000000000076
:0661290000000000000070
:06612f000000000000006a
:0661350000000000000064
:06613b000000000000005e
:0661410000000000000058
:0661470000000000000052
:06614d000000000000004c
:0661530000000000000046
:0661590000000000000040
:06615f000000000000003a
:0661650000000000000034
:06616b000000000000002e
:0661710000000000000028
:0661770000000000000022
:06617d000000000000001c
:0661830000000000000016
:0661890000000000000010
:06618f000000000000000a
:0661950000000000000004
:06619b00000000000000fe
:0661a100000000000000f8
:0661a700000000000000f2
:0661ad00000000000000ec
:0661b300000000000000e6
:0661b900000000000000e0
:0661bf00000000000000da
:0661c500000000000000d4
:0661cb00000000000000ce
:0661d100000000000000c8
:0661d700000000000000c2
:0661dd00000000000000bc
:0661e300000000000000b6
:0661e900000000000000b0
:0661ef00000000000000aa
:0661f500000000000000a4
:0661fb000000000000009e
:0662010000000000000097
:0662070000000000000091
:06620d000000000000008b
:0662130000000000000085
:066219000000000000007f
:06621f0000000000000079
:0662250000000000000073
:06622b000000000000006d
:0662310000000000000067
:0662370000000000000061
:06623d000000000000005b
:0662430000000000000055
:066249000000000000004f
:06624f0000000000000049
:0662550000000000000043
:06625b000000000000003d
:0662610000000000000037
:0662670000000000000031
:06626d000000000000002b
:0662730000000000000025
:066279000000000000001f
:06627f0000000000000019
:0662850000000000000013
:06628b000000000000000d
:0662910000000000000007
:0662970000000000000001
:02629d000000ff
:02629f001101eb
:0362a10062003f59
:0362a40082000075
:0262a7000103f1
:0862a9000000000000000000ed
:0862b1000000000000000000e5
:0862b9000000000000000000dd
:0862c1000000000000000000d5
:0266a9000000ef
:0366ab00820080ea
:0266ae000103e6
:0866b0000000000000000000e2
:0866b8000000000000000000da
:0866c0000000000000000000d2
:0866c8000000000000000000ca
:026ab0000000e4
:026ab2001102cf
:036ab40062002f4e
:036ab7008200005a
:026aba000103d6
:066abc00000000000000d4
:066ac200000000000000ce
:066ac800000000000000c8
:066ace00000000000000c2
:066ad400000000000000bc
:066ada00000000000000b6
:066ae000000000000000b0
:066ae600000000000000aa
:066aec00000000000000a4
:066af2000000000000009e
:066af80000000000000098
:066afe0000000000000092
:066b04000000000000008b
:066b0a0000000000000085
:066b10000000000000007f
:066b160000000000000079
:066b1c0000000000000073
:066b22000000000000006d
:066b280000000000000067
:066b2e0000000000000061
:066b34000000000000005b
:066b3a0000000000000055
:066b40000000000000004f
:066b460000000000000049
:066b4c0000000000000043
:066b52000000000000003d
:066b580000000000000037
:066b5e0000000000000031
:066b64000000000000002b
:066b6a0000000000000025
:066b70000000000000001f
:066b760000000000000019
:066b7c0000000000000013
:066b82000000000000000d
:066b880000000000000007
:066b8e0000000000000001
:066b9400000000000000fb
:066b9a00000000000000f5
:066ba000000000000000ef
:066ba600000000000000e9
:066bac00000000000000e3
:066bb200000000000000dd
:066bb800000000000000d7
:066bbe00000000000000d1
:066bc400000000000000cb
:066bca00000000000000c5
:066bd000000000000000bf
:066bd600000000000000b9
:066bdc00000000000000b3
:066be200000000000000ad
:066be800000000000000a7
:066bee00000000000000a1
:066bf4000000000000009b
:066bfa0000000000000095
:066c00000000000000008e
:066c060000000000000088
:066c0c0000000000000082
:066c12000000000000007c
:066c180000000000000076
:066c1e0000000000000070
:066c24000000000000006a
:066c2a0000000000000064
:066c30000000000000005e
:066c360000000000000058
:066c3c0000000000000052
:066c42000000000000004c
:066c480000000000000046
:066c4e0000000000000040
:066c54000000000000003a
:066c5a0000000000000034
:066c60000000000000002e
:066c660000000000000028
:066c6c0000000000000022
:066c72000000000000001c
:066c780000000000000016
:066c7e0000000000000010
:066c84000000000000000a
:066c8a0000000000000004
:066c9000000000000000fe
:066c9600000000000000f8
:066c9c00000000000000f2
:066ca200000000000000ec
:066ca800000000000000e6
:066cae00000000000000e0
:066cb400000000000000da
:066cba00000000000000d4
:066cc000000000000000ce
:066cc600000000000000c8
:066ccc00000000000000c2
:066cd200000000000000bc
:066cd800000000000000b6
:066cde00000000000000b0
:066ce400000000000000aa
:066cea00000000000000a4
:066cf0000000000000009e
:066cf60000000000000098
:066cfc0000000000000092
:066d02000000000000008b
:066d080000000000000085
:066d0e000000000000007f
:066d140000000000000079
:066d1a0000000000000073
:066d20000000000000006d
:066d260000000000000067
:066d2c0000000000000061
:066d32000000000000005b
:066d380000000000000055
:066d3e000000000000004f
:066d440000000000000049
:066d4a0000000000000043
:066d50000000000000003d
:066d560000000000000037
:066d5c0000000000000031
:066d62000000000000002b
:066d680000000000000025
:066d6e000000000000001f
:066d740000000000000019
:066d7a0000000000000013
:066d80000000000000000d
:066d860000000000000007
:066d8c0000000000000001
:066d9200000000000000fb
:066d9800000000000000f5
:066d9e00000000000000ef
:066da400000000000000e9
:066daa00000000000000e3
:066db000000000000000dd
:066db600000000000000d7
:026dbc000000d5
:036dbe00820080d0
:026dc1000103cc
:066dc300000000000000ca
:066dc900000000000000c4
:066dcf00000000000000be
:066dd500000000000000b8
:066ddb00000000000000b2
:066de100000000000000ac
:066de700000000000000a6
:066ded00000000000000a0
:066df3000000000000009a
:066df90000000000000094
:066dff000000000000008e
:066e050000000000000087
:066e0b0000000000000081
:066e11000000000000007b
:066e170000000000000075
:066e1d000000000000006f
:066e230000000000000069
:066e290000000000000063
:066e2f000000000000005d
:066e350000000000000057
:066e3b0000000000000051
:066e41000000000000004b
:066e470000000000000045
:066e4d000000000000003f
:066e530000000000000039
:066e590000000000000033
:066e5f000000000000002d
:066e650000000000000027
:066e6b0000000000000021
:066e71000000000000001b
:066e770000000000000015
:066e7d000000000000000f
:066e830000000000000009
:066e890000000000000003
:066e8f00000000000000fd
:066e9500000000000000f7
:066e9b00000000000000f1
:066ea100000000000000eb
:066ea700000000000000e5
:066ead00000000000000df
:066eb300000000000000d9
:066eb900000000000000d3
:066ebf00000000000000cd
:066ec500000000000000c7
:066ecb00000000000000c1
:066ed100000000000000bb
:066ed700000000000000b5
:066edd00000000000000af
:066ee300000000000000a9
:066ee900000000000000a3
:066eef000000000000009d
:066ef50000000000000097
:066efb0000000000000091
:066f01000000000000008a
:066f070000000000000084
:066f0d000000000000007e
:066f130000000000000078
:066f190000000000000072
:066f1f000000000000006c
:066f250000000000000066
:066f2b0000000000000060
:066f31000000000000005a
:066f370000000000000054
:066f3d000000000000004e
:066f430000000000000048
:066f490000000000000042
:066f4f000000000000003c
:066f550000000000000036
:066f5b0000000000000030
:066f61000000000000002a
:066f670000000000000024
:066f6d000000000000001e
:066f730000000000000018
:066f790000000000000012
:066f7f000000000000000c
:066f850000000000000006
:066f8b0000000000000000
:066f9100000000000000fa
:066f9700000000000000f4
:066f9d00000000000000ee
:066fa300000000000000e8
:066fa900000000000000e2
:066faf00000000000000dc
:066fb500000000000000d6
:066fbb00000000000000d0
:066fc100000000000000ca
:066fc700000000000000c4
:066fcd00000000000000be
:066fd300000000000000b8
:066fd900000000000000b2
:066fdf00000000000000ac
:066fe500000000000000a6
:066feb00000000000000a0
:066ff1000000000000009a
:066ff70000000000000094
:066ffd000000000000008e
:0670030000000000000087
:0670090000000000000081
:06700f000000000000007b
:0670150000000000000075
:06701b000000000000006f
:0670210000000000000069
:0670270000000000000063
:06702d000000000000005d
:0670330000000000000057
:0670390000000000000051
:06703f000000000000004b
:0670450000000000000045
:06704b000000000000003f
:0670510000000000000039
:0670570000000000000033
:06705d000000000000002d
:0670630000000000000027
:0670690000000000000021
:06706f000000000000001b
:0670750000000000000015
:06707b000000000000000f
:0670810000000000000009
:0670870000000000000003
:06708d00000000000000fd
:06709300000000000000f7
:06709900000000000000f1
:06709f00000000000000eb
:0670a500000000000000e5
:0670ab00000000000000df
:0670b100000000000000d9
:0670b700000000000000d3
:0670bd00000000000000cd
:0270c3000000cb
:0270c5001103b5
:0370c70062003f25
:0370ca0082000041
:0270cd000103bd
:0870cf000000000000000000b9
:0870d7000000000000000000b1
:0870df000000000000000000a9
:0870e7000000000000000000a1
:0274cf000000bb
:0374d100820080b6
:0274d4000103b2
:0874d6000000000000000000ae
:0874de000000000000000000a6
:0874e60000000000000000009e
:0874ee00000000000000000096
:0278d6000000b0
:0178d800228d
:0278d90025ed9b
:0278db000106a4
:00000001FF
